:020000040800F2
:10000000A0AB002031030008E5550008D1400008EE
:10001000E15500083D0C00088D800008000000003C
:100020000000000000000000000000007102000855
:10003000F70E000800000000CD020008A95A0008D1
:100040004B0300084B0300084B0300084B03000858
:100050004B0300084B0300084B0300084B03000848
:100060004B0300084B0300084B0300084B03000838
:10007000210E00084B0300084B0300084B03000847
:100080004B0300084B0300084B030008790C0008E1
:10009000590C0008690C00084B0300084B030008CA
:1000A0004B0300084B0300084B0300084B030008F8
:1000B0004B0300084B0300084B0300084B030008E8
:1000C0004B0300084B0300084B0300084B030008D8
:1000D0004B030008216400084B030008316400084A
:1000E0004B0300084B0300084B0300084B030008B8
:1000F0004B0300084B0300084B0300084B030008A8
:100100004B0300084B030008ED5B00084B0300089D
:100110004B0300084B030008FD5B00084B0300087D
:100120004B0300084B030008250E0008350E00089D
:100130004B0300084B0300084B030008A90C000800
:10014000890C0008990C00084B030008E9550008C9
:100150004B0300084B0300084B03000861650008CF
:100160004B0300084B0300084B0300084B03000837
:100170004B0300084B0300084B030008000000007D
:100180004B0300084B03000800F002F800F060F891
:100190000AA090E8000C82448344AAF10107DA45E2
:1001A00001D100F055F8AFF2090EBAE80F0013F0D4
:1001B000010F18BFFB1A43F00103184784CA00005F
:1001C000A4CA00000A444FF0000C10F8013B13F0E1
:1001D000070408BF10F8014B1D1108BF10F8015BA0
:1001E000641E05D010F8016B641E01F8016BF9D193
:1001F00013F0080F1EBF10F8014BAD1C0C1B09D1EA
:100200006D1E58BF01F801CBFAD505E014F8016B5B
:1002100001F8016B6D1EF9D59142D6D370470000ED
:100220000023002400250026103A28BF78C1FBD8FF
:10023000520728BF30C148BF0B6070471FB50CF094
:10024000CEFA9DE8030000F01DFA1FBD10B510BDE9
:1002500000F09CFA1146FFF7F1FF09F0EBFB00F00C
:10026000BAFA03B4FFF7F2FF03BC00F0F1FA0000A2
:100270002C4B19680868B0E8F04F80F30988BFF389
:100280006F8F4FF0000080F311887047000000006E
:1002900008480068006880F308884FF0000080F389
:1002A000148862B661B6BFF34F8FBFF36F8F00DF64
:1002B00000BF00BF08ED00E0DFF80C00016841F46A
:1002C00070010160704700BF88ED00E0EFF3098026
:1002D000BFF36F8F134B1A681EF0100F08BF20ED8D
:1002E000108A20E9F04F106009B44FF0500080F3FD
:1002F0001188BFF34F8FBFF36F8F0AF057FE4FF097
:10030000000080F3118809BC19680868B0E8F04F54
:100310001EF0100F08BFB0EC108A80F30988BFF3FD
:100320006F8F704770010020EFF305807047000069
:100330000948804709480047FEE7FEE7FEE7FEE779
:10034000FEE7FEE7FEE7FEE7FEE7FEE704480549B5
:10035000054A064B70470000895B000889010008C8
:10036000A06B0020A0AB0020A08B0020A08B002061
:1003700070B5064600F06AF9056806F10B0020F03A
:100380000704B4429CBF002070BD2B466A68BAB116
:100390001068A04210D304F1080188423CBF5068A5
:1003A000586007D35168101941601168091B01603A
:1003B00058601460101D70BD13465268002AE7D1C2
:1003C0002146284600F04AF90028DED170BD70B5FC
:1003D0000446051F00F03AF90068002C14BF446879
:1003E00070BD002C18BFAC423CBF20466468F8D3F7
:1003F00001680A18AA4218BF456003D12A68054659
:100400001144016028684119A1421CBF6C6070BD95
:100410006168696021680844286070BD53EA020C75
:1004200000F069802DE9F04B4FF00006002B1FBF54
:10043000B3FA83F503FA05F424FA05F65E4012BF19
:100440001643B2FA82F502FA05F4C5F120051EBF83
:1004500022FA05FC44EA0C04203556EA044C4FEA23
:10046000144418BF641C4FF000084FF0000990427C
:1004700071EB030C39D3002919BFB1FA81F701FAE6
:1004800007F6B0FA80F700FA07F6C7F120071EBF9B
:1004900020FA07FC46EA0C062037B6FBF4FCA7EB73
:1004A0000507103F07F01F0BCBF120060CFA0BFBE2
:1004B0002CFA06F644BFB3460026202FA4BF5E46A2
:1004C0004FF0000B5BEA060C08BF4FF0010B19EB75
:1004D0000B09ABFB027C48EB0608C01B06FB02CCF9
:1004E0000BFB03CC71EB0C01C1E70B460246414606
:1004F0004846BDE8F08B13B54FF000004FF0000107
:10050000AFF30080BDE81C407047032A40F2308002
:1005100010F0030C00F0158011F8013BBCF1020F44
:10052000624498BF11F801CB00F8013B38BF11F8C5
:10053000013BA2F1040298BF00F801CB38BF00F8DC
:10054000013B11F0030300F02580083AC0F0088059
:1005500051F8043B083A51F804CBA0E80810F5E73D
:10056000121D5CBF51F8043B40F8043BAFF3008020
:10057000D20724BF11F8013B11F801CB48BF11F895
:10058000012B24BF00F8013B00F801CB48BF00F865
:10059000012B704710B5203AC0F00B80B1E818501D
:1005A000203AA0E81850B1E81850A0E81850BFF45D
:1005B000F5AF5FEA027C24BFB1E81850A0E81850FC
:1005C00044BF18C918C0BDE810405FEA827C24BF50
:1005D00051F8043B40F8043B08BF7047D20728BFDE
:1005E00031F8023B48BF11F8012B28BF20F8023B2D
:1005F00048BF00F8012B70474FF0000200B51346CA
:1006000094469646203922BFA0E80C50A0E80C5032
:10061000B1F12001BFF4F7AF090728BFA0E80C50E3
:1006200048BF0CC05DF804EB890028BF40F8042BDC
:1006300008BF704748BF20F8022B11F0804F18BF49
:1006400000F8012B704770477047704700487047AB
:10065000446B0020704770477047704738B50446B8
:100660000A4600206946AFF30080002808BF38BD65
:1006700002460099204600F04FF8012038BD0120C5
:1006800000F07CB8F8B5AFF30080054600200C46BA
:10069000102000BF0646A819A0420DD9324669466F
:1006A0000020AFF30080070008BF00F067F8009853
:1006B000A04218BF0546C419FFF7C8FF05600746EA
:1006C000F01D20F007004619284600F00AF8B44251
:1006D00008BFF8BDA21B31463868BDE8F84000F0FD
:1006E0001BB800210160C0E901107047102070475D
:1006F00010B500F00DF8006810BD10B5044600F00C
:1007000007F8046010BD0000004870473C6B0020F3
:10071000004870473C6B0020034640688C46002828
:1007200018BF88423CBF03464068F8D31868184495
:10073000884207D00CF1030020F00700001D411A89
:10074000521A0146081D0A60FFF741BE1FB584B06A
:1007500000200A9C06AB04AA02A90094AFF3008013
:1007600018B1DDE9020108B010BD0348204000F0D7
:1007700040F800200146F6E70000207C10B500F0AC
:100780003FF8BDE8104000F02FB870477546FFF7FE
:10079000BBFFAE4605006946534620F0070085467C
:1007A00018B020B5FFF7D2FDBDE820404FF000069D
:1007B0004FF000074FF000084FF0000B21F0070149
:1007C000AC46ACE8C009ACE8C009ACE8C009ACE88C
:1007D000C0098D46704710B50446AFF3008020462F
:1007E000BDE81040FFF73DBD002801D000F030B853
:1007F000704710B500F04CF8BDE81040FFF7F4BFAB
:1008000010B5012805D0002103A000F027F8012031
:1008100010BD09A1F8E7000053494752544D454D1A
:100820003A204F7574206F662068656170206D6591
:100830006D6F7279000000003A2048656170206D8C
:10084000656D6F727920636F727275707465640084
:1008500001491820ABBEFEE72600020070B5054630
:100860000C460A2000E06D1C00F068F835B12878CD
:100870000028F8D102E0641C00F060F814B1207880
:100880000028F8D1BDE870400A2000F057B80000F9
:1008900010B5022803D0410103D50DA112E00020BC
:1008A00010BD010101D50FA10CE0C10001D511A1BE
:1008B00008E0810001D512A104E0400001D513A198
:1008C00000E0002115A0FFF7C9FF012010BD0000C6
:1008D000496E76616C6964204F7065726174696FEE
:1008E0006E000000446976696465204279205A658B
:1008F000726F00004F766572666C6F7700000000C3
:10090000556E646572666C6F77000000496E65789D
:1009100061637420526573756C74000053494746D7
:1009200050453A2041726974686D65746963206549
:100930007863657074696F6E3A20000008B5694687
:100940008DF800000320ABBE08BD0000B7EE000A22
:1009500080ED000A9FED060A80ED010A9FED040A72
:1009600080ED020A9FED020A80ED030A7047000045
:100970000000000010B501221021024801F040FBE8
:1009800010BD00000000024010B5002210210248F6
:1009900001F036FB10BD000000000240704700006F
:1009A00010B501221146024801F02AFB10BD0000DB
:1009B0000004024010B500220121024801F020FB92
:1009C00010BD000000040240704710B5044603E06B
:1009D0004FF47A7000F006F8201EA4F101018CB2E9
:1009E000F6D110BD70B5034600BF00BF0020002245
:1009F00000BF4FF0E0267569A82603FB06F44FF010
:100A0000E026B16910E04FF0E026B06988420BD0D3
:100A1000884202D20E1A324402E02E1A0E443244A8
:100A20000146A24200D300E0EDE700BF70BD10B563
:100A30000024FFF7B3FFFFF7C7FF07F0A3FD044350
:100A400007F034FE0443204610BD00002DE9FC41B0
:100A500005460E461746002000900190FFF794FFD0
:100A6000922000F0D1F806226946122000F0ACF87E
:100A7000FFF780FF9DF80100000200B29DF8001012
:100A800040EA010400EE104AB8EEC00A4C48D0ED2E
:100A9000000A20EE200A86ED000A9DF803000002FD
:100AA00000B29DF8021040EA010400EE104AB8EED0
:100AB000C00A4348D0ED000A20EE200A86ED010A64
:100AC0009DF80500000200B29DF8041040EA010400
:100AD00000EE104AB8EEC00A3948D0ED000A20EE08
:100AE000200A86ED020AFFF765FF0822694600200A
:100AF00000F06AF8FFF754FF9DF800000F2838D186
:100B00009DF80300000200B29DF8021040EA0104C3
:100B100000EE104AB8EEC00A2A48D0ED000A20EED6
:100B2000200A85ED000A9DF80500000200B29DF83C
:100B3000041040EA010400EE104AB8EEC00A214851
:100B4000D0ED000A20EE200A85ED010A9DF807008D
:100B5000000200B29DF8061040EA010400EE104ABF
:100B6000B8EEC00A1748D0ED000A20EE200A85ED45
:100B7000020AFFF709FFA22000F046F802226946A8
:100B8000222000F021F8FFF7F5FE9DF80000C000DC
:100B90009DF8011040EA6114B4F5806F02DBA4F502
:100BA000006004B200EE104AF8EEC00AB4EE001A7B
:100BB000B3EE070A00EE810A87ED000ABDE8FC816A
:100BC0000C0100201001002070B506460C461546A9
:100BD00046F0800000F018F806E0552000F014F808
:100BE0002070641C681EC5B2002DF6D170BD70B5B2
:100BF00004460D4644F0800000F006F8552000F051
:100C000003F8287070BD000001B582B04FF47A700F
:100C1000012301AA02A90090024802F01BFC9DF8E2
:100C200004000EBDF009002070B505460C462846AC
:100C3000FFF7EAFF2046FFF7E7FF70BD00BFFEE7C2
:100C400010B5044802F082FD0821024802F0A3FF1B
:100C500010BD0000080B002010B5024800F079FB21
:100C600010BD0000A009002010B5024800F071FB83
:100C700010BD0000A009002010B5024800F069FB7B
:100C800010BD0000A009002010B5024800F061FB73
:100C900010BD0000C809002010B5024800F059FB43
:100CA00010BD0000C809002010B5024800F051FB3B
:100CB00010BD0000C809002030B587B005460C46BD
:100CC00040F2FF1000900020029003900820049052
:100CD000280A074908704D70200A8870CC7006AB4E
:100CE0000A466946034800F067F907B030BD0000C6
:100CF000D6000020A009002070B588B006460C463A
:100D000015464FF4007001900020039004900820D5
:100D10000590300A084908704E70200A8870CC701F
:100D2000280A08714D7107AB0A4601A9034800F073
:100D300043F908B070BD0000DA000020A0090020CF
:100D40000346042B15D007DC7BB1012B0ED0022B00
:100D50000DD0032B12D10BE0202B0BD0212B0AD06E
:100D6000222B09D0232B09D107E008E007E006E099
:100D700005E004E003E002E001E000E000BF00BFA6
:100D8000002070470020704710B500220449054834
:100D900005F0F9FC0449034805F0EFFC002010BD04
:100DA000B01D0020A80C0020B015002070B504462E
:100DB0000D462868FF2809D8002004E0215C084A75
:100DC0001154411C88B229688142F7D82146054850
:100DD00005F0D3FC034805F0AFFC002070BD000017
:100DE0004C150020A80C00202DE9F04104460D46CA
:100DF00000260A48D0F89072D7F8140210B10120EA
:100E0000BDE8F0812A462146044805F0BCFC0348B1
:100E100005F034FD06463046F2E70000A80C00203D
:100E20007047000010B5024800F05CFE10BD0000E5
:100E3000480A002010B5024800F054FE10BD000022
:100E4000A80A002001680A4BCAB2103AA3FB02327A
:100E50001209084B9B5CC365032A04D96FF309018F
:100E6000091D816502E06FF309018165806D70479E
:100E7000ABAAAAAAD4CB0008014600208A6A8B69D3
:100E8000002B0FD0B3F5005F1DD08AB3012A30D0FC
:100E9000022A2ED0032A04D1C96A11F0807F00D023
:100EA000012070471AB1012A07D0022AF9D1C96A74
:100EB00011F0807FF5D001207047C96AB1F1C07F81
:100EC000FAD1012070475AB1012A0BD0022A07D06B
:100ED000032AF7D1C96AB1F1C07FF3D1012070476D
:100EE00001207047C96A11F0807FFAD00120704755
:100EF000FFE701207047704772B600BFFEE70000B1
:100F000070B50A480468001D0568001D0668344471
:100F100054B108220649204603F05EF90422044930
:100F20001031284603F058F970BD0000107AFF1FF9
:100F30006200002010B52DED028B82B0124890EDBA
:100F4000090AB0EE408A0024104890F8B402012843
:100F500001D144F001040D4890F8B40208B944F0FE
:100F60000204002000902346BDEEC80A019010EE56
:100F7000100A02B240F22221054807F023FC02B019
:100F8000BDEC028B10BD0000F428002038260020A4
:100F9000A009002090F82020012A07D0022A05D0BD
:100FA000416A41F480214162012070470068426932
:100FB000114341610020704770B490F82040D0F890
:100FC00000C0DCF808C0012C08D0022C06D0416A11
:100FD00041F48021416270BC012070470CF08064B4
:100FE0000CF000652C4302D11CF0805F5FD0CCF385
:100FF000016CBCF1020F06D9416A41F40001416263
:1010000070BC01207047012404FA0CF41C608B684A
:101010004FF4C0749BB1CD6804EB0C162B434D68A4
:1010200043EAC5030568AB514FF4C273066803EB8E
:101030000C130D69F550097D012909D00DE00D88CB
:10104000CB6804EB0C1643EA45530568AB51EBE75C
:101050000168CD5845F48075CD501179D379557913
:1010600041EA036193791B0443EA052319434FF4D2
:10107000C675036805EB0C1559511178D37841EA10
:101080000361937852781B0443EA022211434FF420
:10109000C473026803EB0C13D150016804EB0C100D
:1010A0000A5842F001020A5070BC00207047416AA1
:1010B00041F40011416270BC0120704790F820207B
:1010C000012A07D0022A05D0416A41F480214162F9
:1010D000012070474248D0F8002242F00102C0F8D7
:1010E0000022D0F8002222F47C52C0F80022D0F86E
:1010F00000224B6A42EA0322C0F800220A7D012343
:1011000002F01F0203FA02F2D0F81C329343C0F837
:101110001C32CB69D3B9D0F80C329343C0F80C32EF
:10112000B1F80CC04B686CF31F43D1F814C000EB4E
:10113000CC0CCCF84032B1F808C00B686CF31F43FC
:10114000D1F814C000EBCC0CCCF84432CB69012BA5
:101150001AD1D0F80C321343C0F80C32B1F800C0E9
:101160004B686CF31F43D1F814C000EBCC0CCCF8E7
:101170004032B1F808C0CB686CF31F43D1F814C0FB
:1011800000EBCC0CCCF844328B697BB1D0F8043244
:101190001343C0F804320B6973B1D0F8143213430F
:1011A000C0F81432096A01290CD010E0D0F80432DA
:1011B0009343C0F80432EEE7D0F814329343C0F8FA
:1011C0001432EFE7D0F81C121143C0F81C12D0F80B
:1011D000001221F00101C0F8001200207047000049
:1011E00000640040704710B490F820C0BCF1010FBB
:1011F00009D0BCF1020F06D0416A41F4802141625E
:1012000010BC0120704739B1D0F800C0DCF810C024
:101210001CF0030F7DD006E0D0F800C0DCF80CC055
:101220001CF0030F7BD04FF4D87C04680CEB011C3E
:1012300054F80C4004F004049460002C7DD0046841
:1012400054F80C40E4085460046854F80CC0CCF323
:10125000400CC2F80CC04FF4DA7C04680CEB011CA3
:1012600054F80C4004F00F041461046854F80C4066
:10127000C4F307249461046854F80CC04FEA1C4C72
:10128000C2F814C04FF4DC72D0F800C002EB0112B7
:101290005CF802C083F800C0D0F800C05CF802C05F
:1012A0004FEA1C2C83F801C0D0F800C05CF802C0E3
:1012B0004FEA1C4C83F802C0D0F800C05CF8022052
:1012C000120EDA704FF4DE72D0F800C002EB011299
:1012D0005CF802C083F804C0D0F800C05CF802C01B
:1012E0004FEA1C2C83F805C0D0F800C05CF802C09F
:1012F0004FEA1C4C83F806C0D0F800C05CF802200E
:10130000120EDA71F9B10068016941F02001016142
:1013100002E00BE003E010E010BC00207047416ADF
:1013200041F40011416210BC01207047416A41F450
:101330000011416210BC01207047046854F80C4051
:10134000640D146080E70068C16841F02001C1604D
:10135000DEE72DE9F05F0546002428684669D0F8ED
:1013600004908768D0F80CA0D0F810B0D0F818809E
:1013700016F0010F54D017F0010F17D00121816032
:1013800017F0020F03D0284600F094FB0EE017F090
:10139000040F02D04FF4006408E017F0080F02D0E9
:1013A0004FF4805402E0284600F083FB17F4807F5E
:1013B00019D029684FF48070886017F4007F03D03B
:1013C000284600F079FB0EE017F4806F02D044F459
:1013D000005408E017F4006F02D044F4804402E0A7
:1013E000284600F068FB17F4803F19D029684FF4B5
:1013F0008030886017F4003F03D0284600F05EFB81
:101400000EE017F4802F02D044F4004408E017F4F3
:10141000002F02D044F4803402E0284600F04DFB57
:1014200016F0080F07D01AF0100F04D044F400741F
:1014300029681020C86016F0040F4FF0080707D085
:101440001AF0080F04D02868C760284600F020FA78
:1014500016F0020F07D02868C06810F0030F02D002
:10146000284600F017FA16F0400F07D01BF0100FB7
:1014700004D044F4806429681020086116F0200F1D
:1014800007D01BF0080F04D028680761284600F039
:10149000DBFA16F0100F07D02868006910F0030F70
:1014A00002D0284600F0D1FA16F4003F08D019F017
:1014B000100F05D0296810204860284600F0C6FAB1
:1014C00016F4803F07D019F0080F04D02868476051
:1014D000284600F0F4FA16F4004F4AD019F0040F31
:1014E00044D016F4807F04D018F0010F01D044F0EE
:1014F000010416F4007F04D018F0020F01D044F06C
:10150000020416F4806F04D018F0040F01D044F0E8
:10151000040416F4006F29D018F0700F26D008F0DC
:101520007000402815D006DC102809D020280AD0E9
:10153000302816D10AE050280ED0602811D10EE0D4
:1015400044F008040DE044F010040AE044F02004E4
:1015500007E044F0400404E044F0800401E044F477
:1015600080742868816921F07001816129680420F4
:101570004860002C05D0686A204368622846FFF75F
:1015800031FEBDE8F09F70B50446002C03D094F8FE
:10159000200010B104E0012070BD204600F0A8F842
:1015A0002068016821F00201016000F031FD05466C
:1015B000206840684FF0050610F0020F11D000F0CF
:1015C00027FD401B0A2807D9606A40F4003060629A
:1015D00084F82060012070BD2068406810F0020F80
:1015E000EDD12068016841F00101016000F010FDBB
:1015F00005462068406810F0010F11D100F008FD89
:10160000401B0A2807D9606A40F40030606284F801
:101610002060012070BD2068406810F0010FEDD0FF
:10162000207E01283FD02068016821F08001016000
:10163000607E01283DD02068016821F040010160F2
:10164000A07E01283BD02068016821F020010160C4
:10165000E07E012839D02068016841F01001016066
:10166000207F012837D02068016821F0080101603F
:10167000607F012835D02068016821F004010160F5
:10168000E168A06862690843216911430843616801
:10169000491E08432168C86100206062012084F867
:1016A0002000002070BD2068016841F080010160C9
:1016B000BEE72068016841F040010160C0E7206892
:1016C000016841F020010160C2E72068016821F053
:1016D00010010160C4E72068016841F00801016061
:1016E000C6E72068016841F004010160C8E7000016
:1016F00010B586B00446142101A8FEF77DFF5E49AF
:101700002068884251D15D480068401C5B490860F0
:101710000846006801280FD100BF002000905848FB
:10172000006840F00070564908600846006800F004
:101730000070009000BF00BF00BF00200090504824
:101740001038006840F008004D491039086008461C
:10175000006800F00800009000BF00BF0320019067
:10176000022002900020039003200490092005909D
:1017700001A9444800F036FB00220521132000F0A7
:10178000EDFC132000F0DCFC00220521142000F009
:10179000E5FC142000F0D4FC00220521152000F007
:1017A000DDFC152000F0CCFC64E03749206888425D
:1017B00060D100BF002000903148006840F0806098
:1017C0002F4908600846006800F08060009000BF64
:1017D00000BF2A480068401C284908600846006885
:1017E00001280FD100BF002000902548006840F07C
:1017F0000070234908600846006800F000700090FF
:1018000000BF00BF00BF002000901D4810380068D6
:1018100040F002001A49103908600846006800F0DC
:101820000200009000BF00BF6020019002200290E3
:1018300000200390032004900920059001A913487B
:1018400000F0D0FA002205213F2000F087FC3F2065
:1018500000F076FC00220521402000F07FFC4020B3
:1018600000F06EFC00220521412000F077FC4120B1
:1018700000F066FC06B010BD0064004028000020A7
:1018800040380240000C0240006800400004024062
:101890007047000010B588B004466449206888424B
:1018A00078D1634B01AA00216248FFF79CFC0198A4
:1018B000A0F20120062826D2DFE800F091496DB49D
:1018C00003265D48008800B25B490881584840788B
:1018D0005749097840EA0120574908805448C078A0
:1018E0005349897840EA012000B253494880504862
:1018F00040794F49097940EA012000B24E49888079
:101900004B48807988718DE04C48008800B24B4983
:101910000881474840784649097840EA012047490C
:1019200008804348C0784249897840EA012000B2E3
:10193000424948803E4840793D49097940EA0120C2
:1019400000B23E4988803A48807988716AE03C4814
:10195000008800B23A49088135484078344909780E
:1019600040EA0120364908803148C07830498978FA
:1019700040EA012000B2324948802D4840792C4984
:10198000097940EA012000B22D49888028488079F1
:10199000887147E047E02A48408901B228484182DF
:1019A000234840782249097840EA012024494881A7
:1019B0001F48C0781E49897840EA012001B22048BA
:1019C00081811B4840791A49097940EA012001B216
:1019D0001B48C181164881791948017422E01948D1
:1019E000008800B2174908811148407810490978E9
:1019F00040EA0120134908800D48C0780C498978D5
:101A000040EA012000B20F4948800948407908495E
:101A1000097940EA012000B20A49888004488079A7
:101A2000887100BF00BF08B010BD00000064004016
:101A3000C0000020A00900200A2A0020142A00204B
:101A40001E2A0020322A002070477047704770B568
:101A5000044694F82000012805D0606A40F4002074
:101A60006062012070BD022084F8200020680168B7
:101A700021F00101016000F0CBFA054620684068C2
:101A800010F0010F12D000F0C3FA401B0A2808D949
:101A9000606A40F400306062052084F82000012074
:101AA00070BD2068406810F0010FECD1002060622A
:101AB00070BD7047704770477047704770477047F8
:101AC00090F83510022903D080214165012070472C
:101AD000052180F835100068016821F001010160DE
:101AE000002070472DE9F84304464FF00008CDF878
:101AF000008076484FF416510068B0FBF1F7A56DF1
:101B00002E6894F85C00082101FA00F0304211D0F0
:101B10002068026812F0040F0CD0026822F0040260
:101B2000026094F85C0001FA00F0A860606D40F07B
:101B30000100606594F85C004FF0010909FA00F0BB
:101B4000304209D02168496911F0800F04D0A860A3
:101B5000606D40F00200606594F85C1004208840DD
:101B6000304209D02168096811F0020F04D0A86042
:101B7000606D40F00400606594F85C1010208840AF
:101B8000304224D02168096811F0080F1FD0A860E6
:101B90002068016811F4802F0DD0006810F4002F28
:101BA00004D0A16C99B12046884710E0216C71B136
:101BB000204688470BE0016811F4807F03D101685B
:101BC00021F008010160216C09B12046884794F892
:101BD0005C1020208840304251D02168096811F003
:101BE000100F4CD0A86094F8350005280DD020685F
:101BF000016811F4802F32D0006810F4002F29D032
:101C0000E16B59B32046884739E02068016821F02C
:101C1000160101602068416921F080014161206C5A
:101C200008B9A06C20B12068016821F008010160AA
:101C300094F85C003F2101FA00F0A86084F8348039
:101C400084F83590216D00293ED001B02046BDE8D2
:101C5000F0430847616C09B1204688470FE00168EE
:101C600011F4807F07D1016821F01001016084F830
:101C7000348084F83590E16B09B120468847606D67
:101C8000002821D0606D10F0010F15D0052084F8D8
:101C900035002068016821F0010101600098401CB6
:101CA0000090B84204D82068006810F0010FF5D108
:101CB00084F8348084F83590E16C002904D001B0B8
:101CC0002046BDE8F0430847BDE8F8838C000020BB
:101CD0002DE9F041044600F09BF90546DCB10026F1
:101CE00084F83460022084F835002068016821F00F
:101CF000010101602068006810F0010F13D000F0AE
:101D000087F9401B052809D920206065032084F845
:101D10003500BDE8F0810120BDE8F0812068006851
:101D200010F0010FEBD121680868234A1040A36826
:101D30006268D4F810C01A43E36843EA0C031A43FC
:101D400063691A43A3691A43E3691A43236A1A436E
:101D50001043626A042A03D1236BE26A1A431043D8
:101D600008602068406920F00701606A40EA0105C8
:101D7000012704280ED1A06A0543E06A50B120462D
:101D8000FFF77AF830B14020606584F835700120A3
:101D9000BDE8F081206845612046FFF753F894F8CC
:101DA0005C103F2202FA01F18160666584F83570AB
:101DB0000020BDE8F08100003F8010F070B50446BF
:101DC00000F026F90546B4F1FF3F02D00448007840
:101DD000044400F01DF9401BA042FAD370BD00007E
:101DE000640100202DE9F84F0022DFF80082DFF8BF
:101DF0000092DFF800A24FF0030E0F27012303FA31
:101E000002F50B682B40AB427DD1D1F804C0BCF188
:101E1000020F02D0BCF1120F12D14FEAD20C00EB2C
:101E20008C0CDCF820605407E40E07FA04FB26EA69
:101E30000B06D1F810B00BFA04F43443CCF8204070
:101E400006684FEA420C0EFA0CF4A64391F804B06F
:101E50000BF0030B0BFA0CFB4BEA060606604E6810
:101E6000012E05D0022E03D0112E01D0122E11D139
:101E70008668A643D1F80CB00BFA0CFB4BEA0606B9
:101E80008660466826EA05050E79C6F30016964078
:101E900035434560C56825EA04048D6805FA0CFCE5
:101EA0004CEA040CC0F80CC0D1F804C01CF0805FF0
:101EB0007DD0D8F800C04CF4804CC8F800C0D8F8E9
:101EC00000C00CF4804CCDF800C022F0030C0CF1E3
:101ED000804404F59834D4F808C895072D0F07FA04
:101EE00005F62CEA0606A0F1804CBCF5003C64D057
:101EF000A0F1804CBCF5013C62D0A0F1804CBCF557
:101F0000023C60D000E052E0A0F1804CBCF5033C04
:101F10005CD0A0F1804CBCF5043C5AD0A0F1804CC0
:101F2000BCF5053C58D0A0F1804CBCF5063C56D021
:101F3000A0F1804CBCF5073C54D04FF0080C0CFAD3
:101F400005FC4CEA060CC4F808C8D9F800C02CEA15
:101F5000030C4C6814F4803F01D04CEA030CC9F820
:101F600000C0254CD4F800C02CEA030C4D6815F4D1
:101F7000003F01D04CEA030CC4F800C0DAF800C0FE
:101F80002CEA030C4C6814F4801F01D04CEA030CBB
:101F9000CAF800C0194CD4F800C02CEA030C4D68F4
:101FA00015F4001F01D04CEA030CC4F800C0521C09
:101FB000102AFFF423AFBDE8F88F4FF0000CBEE706
:101FC0004FF0010CBBE74FF0020CB8E74FF0030CE9
:101FD000B5E74FF0040CB2E74FF0050CAFE74FF058
:101FE000060CACE74FF0070CA9E7000044380240AC
:101FF000003C0140083C0140043C01400C3C0140D5
:10200000002A01D081617047090481617047000096
:102010000148806870470000640100200248816820
:1020200002781144816070476401002010B50B48AC
:10203000016841F400710160016841F48061016050
:10204000016841F480710160032000F0BBF80020BA
:1020500000F006F800F04AF8002010BD003C0240F5
:1020600070B588B00446002500260022214636209F
:1020700000F074F8362000F063F800BF00200190F3
:102080001648006840F010001449086008460068CF
:1020900000F01000019000BF00BF02A903A800F0EB
:1020A0005BFE00F07DFE45000D48B5FBF0F0461EDE
:1020B0000C480D49086040F2E7310B48C1604660AA
:1020C00000210161816001F0EAFA20B9064801F0BF
:1020D0004FFB08B070BD0120FBE700004038024014
:1020E00040420F0000100040B025002008B500BF9E
:1020F000002000901148006840F480400F490860BB
:102100000846006800F48040009000BF00BF00BF98
:1021100000200090081F006840F08050091F0860F0
:102120000846006800F08050009000BF00BF002209
:102130000F21901E00F012F808BD00004438024044
:1021400000280ADB00F01F01012202FA01F1400918
:10215000800000F1E020C0F80011704710B4184B67
:102160001B68C3F30223C3F1070CBCF1040F01D9B0
:102170004FF0040C1C1D072C01D2002300E0DB1ED5
:10218000012404FA0CFCACF1010C0CEA01019940A9
:1021900004FA03F35B1E1A401143002806DB00F12A
:1021A000E020090180F8001410BC704700F00F0017
:1021B00000F1E020090180F8141D10BC70470000F8
:1021C0000CED00E000F00700064A11684FF6FF032F
:1021D000194041EA002040F0FD7040F0806010603E
:1021E000704700000CED00E070470068416200207D
:1021F000704730B40368586A00291BD0D3F828C050
:1022000000EB1C4C00200129A1F101014FF4827464
:1022100008D004EB80055D590CEB154C401CC0B296
:102220008842F6D304EB81014CEA0240585030BC9E
:102230000020704740EA02409862F8E710B5044673
:10224000D4F8040404F026FE10BD70B504460D4613
:10225000C5EBC50304F13C0101EB8301CA682946C3
:10226000D4F8040404F066FD70BD70B504460D4654
:10227000C5EBC50304F5FE7101EB8301CA6829466D
:10228000D4F8040404F0C1FD70BD10B50446D4F8C0
:10229000040404F001FE10BD70B5044611F0800F77
:1022A00001F00F00C0EBC00104EB81014FF001020F
:1022B0004FF0000502D03C314A7002E001F5FE719A
:1022C0004D70087094F8BC03012808D084F8BC2332
:1022D000206805F039FA84F8BC53002070BD022054
:1022E00070BD70B5044601F00F026068824201D9EA
:1022F000012070BD01F00F00C0EBC00011F0800F95
:1023000004EB80004FF001034FF0000503D000F113
:102310003C014B7002E000F5FE714D708D700A704B
:1023200094F8BC03012808D084F8BC33206805F079
:10233000FDFB84F8BC53002070BD022070BD01F08D
:102340000F01C1EBC10100EB8100D0F8140270470E
:1023500070B5044611F0800F01F00F00C0EBC00112
:1023600004EB81014FF0010C4FF0000503D03C312C
:1023700081F801C002E001F5FE714D7008708A60BD
:10238000CB704A7802B1C880022B00D10D7194F84D
:10239000BC03012808D084F8BCC3206805F00EF9FE
:1023A000284684F8BC5370BD022070BD10B50C46A1
:1023B00004F00F0CCCEBCC0100EB810101F5FE71B8
:1023C000CA604B6100238B614B7081F800C00369C8
:1023D000012B00D10A6114F00F0F05D0027C0068B8
:1023E00005F0FFFB002010BD027C006805F0D8FA64
:1023F000F8E770B504460D46616805F00F008842A5
:1024000001D9012070BD15F0800F4FF000064FF08C
:10241000010206D0C0EBC00104EB81013C314A70DF
:1024200006E0C5EBC50104EB810101F5FE714E70BC
:102430008A70087094F8BC03012808D084F8BC2383
:10244000206805F09FFB15F00F0F02D007E0022077
:1024500070BD217C04F57172206805F037FB84F8AB
:10246000BC63002070BD10B50C4604F00F0CCCEB23
:10247000CC0100EB81013C31CA604B6100238B61D0
:1024800001234B7081F800C00369012B00D10A6160
:1024900014F00F0F05D0027C006805F0A2FB0020AD
:1024A00010BD027C006805F07BFAF8E72DE9F05FCB
:1024B00004462568284605F0E5FC00287ED1206802
:1024C00005F00CFD002879D0206805F007FD10F01C
:1024D000020F04D02068416901F0020141612068C7
:1024E00005F0FCFC10F4002F4FF001094FF0080A32
:1024F0004FF0100B4CD00026206805F0CEFC804633
:102500005FEA080044D018F0010F3BD0F1B2206818
:1025100005F0DCFC074617F0010F07D005EB46106D
:10252000C0F8089B3146204603F09AF817F0080FD0
:1025300007D03146204603F05FF805EB4610C0F89F
:1025400008AB17F0100F03D005EB4610C0F808BB1E
:1025500017F0200F0DD02069012805D104F5717204
:102560000121206805F0B2FA05EB46112020C1F8E0
:10257000080B17F4005F05D005EB46114FF400502F
:10258000C1F8080B761C4FEA5808B8F1000FBAD111
:10259000206805F0A3FC10F4802F64D0206805F0BB
:1025A00075FC07460026002F5DD017F0010F56D0AE
:1025B000F1B2206805F078FC804600E08BE118F06D
:1025C000010F27D006F00F0009FA00F0D5F83418F3
:1025D0008143C5F8341805EB4610C0F80899206906
:1025E000012807D1C6EBC60004EB8000426C816C69
:1025F00011448164F1B22046FFF727FE20690128CB
:1026000008D13EB9206D28B904F571720121206806
:1026100005F05CFA18F0080F03D005EB4610C0F87F
:1026200008A918F0100F03D005EB4610C0F808B940
:1026300018F0400F04D005EB46114020C1F80809FE
:1026400018F0020F04D005EB46110220C1F808096A
:1026500018F0800F03D03146204603F079F8761C3D
:102660007F08002FA1D1206805F038FC10F0004F42
:1026700011D0D5F8040820F00101C5F8041894F829
:10268000F40301285BD0204600F046FA2068416937
:1026900001F000414161206805F020FC10F4006F5A
:1026A0000CD0D5F8080810F0010F02D0204600F039
:1026B0007FFA2068416901F400614161206805F0FA
:1026C0000DFC10F4805F60D0D5F8040820F0010103
:1026D000C5F804181021206805F0B0FB00216068DF
:1026E000002817D94FF67F3205EB4110C0F80829B2
:1026F000D0F8003923F40013C0F80039C0F8082BD3
:10270000D0F8003B23F40013C0F8003B491C60687C
:102710008842E9D8D5F81C0840F00111C5F81C180A
:10272000206BA0B1D5F8840840F00B01C5F88418DF
:10273000D5F8440840F00B01C5F8441814E0002017
:1027400084F8F40300212046FFF74EFD9EE7D5F8FC
:10275000140842F22B010143C5F81418D5F81008EB
:1027600040F00B01C5F81018D5F8000820F4FE6100
:10277000C5F80018217C04F57172206805F0A6F9EF
:102780002068416901F480514161206805F0A6FB91
:1027900010F4005F16D0206804F05EFF206805F09A
:1027A00061FBE06000F0F6FA23680146227B1846E0
:1027B00005F0DAFB204600F097F92068416901F442
:1027C00000514161206805F089FB10F0100F36D0F0
:1027D0002068816921F0100181612F6A07F00F00E4
:1027E000C0EBC00004EB800000F5FE76C7F3434069
:1027F000022802D0062812D01CE047F6F0700742EB
:1028000018D0C7F30A1217462846F16805F06AFB8C
:10281000F0683844F060B0693844B0610AE00822DA
:1028200004F57171284605F05DFBB069C7F30A1124
:102830000844B0612068816941F01001816120681D
:1028400005F04CFB10F0080F07D0204600F06BF9A4
:102850002068416901F008014161206805F03EFBF4
:1028600010F4801F08D00021204600F036F82068C0
:10287000416901F480114161206805F02FFB10F4DB
:10288000001F08D00021204600F030F82068416980
:1028900001F400114161206805F020FB10F0804F29
:1028A00007D02046FFF7CAFC2068416901F080414B
:1028B0004161206805F012FB10F0040F0BD0206876
:1028C000456815F0040F02D02046FFF7DEFC2068B3
:1028D000416829434160BDE8F09F70B504460D464C
:1028E0002946D4F8040404F03BFB70BD70B50446DF
:1028F0000D462946D4F8040404F034FB70BD2DE9DC
:10290000F0478AB00446002C05D0266894F8BD0331
:10291000002520B108E00AB00120BDE8F08784F866
:10292000BC53204600F08CF8032084F8BD03F06B04
:1029300010F4807F00D12561206805F02BF804F1A8
:102940001000D4F82C8090E80F10A76A666A8DE812
:102950000F10CDF81C8006970596616B206B0991CE
:10296000089094E80F0004F091FE022728B184F843
:10297000BD730AB00120BDE8F0870021206805F092
:10298000C3FA002160680126002813D9C1EBC100F9
:1029900004EB800080F83D6080F83C10A0F8421005
:1029A00080F83F50456485640565481CC1B2606885
:1029B0008842EBD800216068002814D9C1EBC1001F
:1029C00004EB800080F8FD5180F8FC1180F8FF5185
:1029D000C0F80452C0F80852C0F81052481CC1B2E6
:1029E00060688842EAD804F11000D4F82CA090E87E
:1029F0000F10D4F82890D4F824808DE80F10CDF86B
:102A00001CA0CDF81890CDF81480616B206B099153
:102A1000089094E80F0004F0F7FE28B184F8BD7325
:102A20000AB00120BDE8F08784F8385084F8BD630F
:102A3000206804F0DDFE0AB00020BDE8F087000049
:102A400010B586B00446142101A8FDF7D5FD206815
:102A5000B0F1A04F42D100BF002000902048006894
:102A600040F001001E4908600846006800F00100BF
:102A7000009000BF00BF4FF4C050019002200290B0
:102A800000200390032004900A20059001A9154816
:102A9000FFF7A8F900BF1248001D006840F0800051
:102AA0000F49091D086000BF002000900C48143039
:102AB000006840F480400A49143108600846006804
:102AC00000F48040009000BF00BF00BF002205213D
:102AD0004320FFF743FB4320FFF732FB06B010BD56
:102AE000303802400000024070B504460125E0681D
:102AF00008B9002506E0E068022801D1012501E0BF
:102B0000FEF7FAF92946D4F8040404F098FAD4F848
:102B1000040404F059FA70BD10B50446D4F8040456
:102B200004F07BFA10BD10B50446D4F8040404F098
:102B30007AFA10BD10B5044694F8BC0301280BD0F6
:102B4000012084F8BC0384F83810206805F0F4F9FB
:102B5000002084F8BC0310BD022010BD10B504464F
:102B600004F57171D4F8040404F07FFA10BD10B5B7
:102B70000446206894F8BC13012906D0012184F88A
:102B8000BC13A16A012902D008E0022010BDA1698E
:102B9000012903D0816B41F480318163206804F006
:102BA0001BFE206805F031F9002084F8BC0310BD3D
:102BB00010B50446D4F8040404F0A8FA2068D0F84C
:102BC000000E40F001002168C1F8000E206A28B113
:102BD0000348006840F006000149086010BD00008D
:102BE00010ED00E02DE9F04704460D46002C13D00F
:102BF000DFF85091D9F80000EFB200F00F00A842C2
:102C00000DD289F80070D9F8000000F00F00A8423A
:102C100005D00120BDE8F0870120BDE8F0872068DD
:102C2000494E10F0020F14D010F0040F03D030689A
:102C300040F4E0503060207810F0080F03D0306886
:102C400040F4604030603068A16820F0F000084334
:102C50003060207810F0010F3ED060683B490128B9
:102C600008D002280DD003280BD0096811F0020FFC
:102C700028D00AE0096811F4003F06D10120BDE820
:102C8000F087096811F0007F19D0316821F0030145
:102C900008433060FFF7BCF980463068616800F097
:102CA0000C00B0EB810F17D041F2883AFFF7B0F972
:102CB000A0EB0800504508D90320BDE8F0870120AB
:102CC000BDE8F0870120BDE8F0873068616800F05A
:102CD0000C00B0EB810FE9D1D9F8000000F00F0033
:102CE000A8420AD989F80070D9F8000000F00F0056
:102CF000A84202D00120BDE8F087207810F0040F30
:102D000005D03068E16820F4E05008433060207856
:102D100010F0080F06D03068216920F4604040EAC6
:102D2000C100306000F05CF83168094AC1F303115A
:102D3000515CC840074908600020FFF791F9002066
:102D4000BDE8F087003C02400838024000380240ED
:102D500048CB00088C0000200F2202600B4A136849
:102D600003F003034360136803F0F0038360136808
:102D700003F4E053C360126802F46042D2080261B7
:102D80000348006800F00F000860704708380240F0
:102D9000003C024001480068704700008C000020A1
:102DA00000B5FFF7F7FF04490968044AC1F382211F
:102DB000515CC84000BD00000838024058CB0008F4
:102DC00000B5FFF7E7FF04490968044AC1F342313F
:102DD000515CC84000BD00000838024058CB0008D4
:102DE00010B51748006810F00C01164816D0164BA5
:102DF000042912D0082911D1144C216801F03F0296
:102E0000216811F4800F0AD02068C0F38810A0FB5D
:102E100003010023FDF702FB09E0184610BD2168FD
:102E20000023C1F38811A1FB0001FDF7F7FA216827
:102E3000C1F30141491C4900B0FBF1F010BD000095
:102E4000083802400024F400001BB7000438024098
:102E50002DE9F84F0446002C10D02078FA4D10F0E0
:102E6000010F64D0F948016801F00C0104290DD06C
:102E7000006800F00C00082803D011E00120BDE834
:102E8000F88FF348006810F4800F09D0286810F418
:102E9000003F4CD06068002849D10120BDE8F88F80
:102EA0006068B0F5803F14D0B0F5A02F16D0286828
:102EB00020F480302860286820F480202860606832
:102EC00010B3FFF7A5F80646286810F4003F0ED0AF
:102ED0002DE0286840F480302860F0E7286840F44E
:102EE00080202860286840F480302860E7E7FFF7FA
:102EF0008FF8801B642802D90320BDE8F88F28686A
:102F000010F4003FF3D012E0FFF782F8064628687D
:102F100010F4003F0BD0FFF77BF8801B642802D928
:102F20000320BDE8F88F286810F4003FF3D1207823
:102F3000C84F10F0020F4FF0000856D0C348016888
:102F400011F00C0F15D0006800F00C00082804D117
:102F5000BF48006810F4800F0BD0E06878B3012000
:102F60003860FFF755F80646286810F0020F12D0B7
:102F70001DE0286810F0020F05D0E068012802D09B
:102F80000120BDE8F88F2868216920F0F80040EAA8
:102F9000C100286029E0FFF73BF8801B022802D916
:102FA0000320BDE8F88F286810F0020FF3D02868DE
:102FB000216920F0F80040EAC100286015E0FFE731
:102FC000C7F80080FFF724F80646286810F0020FC3
:102FD0000BD0FFF71DF8801B022802D90320BDE8A3
:102FE000F88F286810F0020FF3D1207810F0080F46
:102FF00033D09948DFF864926169B9B10121016069
:10300000FFF706F80646D9F8000010F0020F24D1A9
:10301000FEF7FEFF801B022802D90320BDE8F88FCF
:10302000D9F8000010F0020FF2D016E0C0F80080CE
:10303000FEF7EEFF0646D9F8000010F0020F0CD0A4
:10304000FEF7E6FF801B022802D90320BDE8F88FB7
:10305000D9F8000010F0020FF2D1207810F0040F20
:1030600073D04FF00009DFF8F8A1DAF8000010F093
:10307000805F0CD1DAF8000040F08050CAF8000000
:10308000DAF8000000F0805000904FF00109DFF8FE
:10309000D4B1DBF8000010F4807F1AD1DBF8000017
:1030A00040F48070CBF80000FEF7B2FF0646DBF874
:1030B000000010F4807F0CD1FEF7AAFF801B0228CD
:1030C00002D90320BDE8F88FDBF8000010F4807F00
:1030D000F2D0A068DFF890B1012818D005281DD0E3
:1030E000DBF8000020F00100CBF80000DBF8000066
:1030F00020F00400CBF80000A06838B3FEF788FF8A
:103100000646DBF8000010F0020F14D03CE0DBF8BC
:10311000000040F00100CBF80000EDE7DBF8000014
:1031200040F00400CBF80000DBF8000040F00100A4
:10313000CBF80000E0E7FEF76BFF811B41F288301F
:10314000814204D90320BDE8F88F26E005E0DBF8D2
:10315000000010F0020FEED016E0FEF759FF064611
:10316000DBF8000010F0020F0ED0FEF751FF811BBC
:1031700041F28830814202D90320BDE8F88FDBF8A4
:10318000000010F0020FF0D1B9F1010F05D1DAF80B
:10319000000020F08050CAF80000A069E8B32B4975
:1031A000096801F00C0108296BD0022810D0C7F87B
:1031B0006080FEF72DFF0446286810F0007F5ED087
:1031C000FEF726FF001B022855D90320BDE8F88F23
:1031D000C7F86080FEF71CFF0646286810F0007FE5
:1031E0000BD0FEF715FF801B022802D90320BDE893
:1031F000F88F286810F0007FF3D1216AE069A26A95
:103200000843616A4FF0FF33890103EB520241EA40
:103210000241084394F82C1000E030E040EA0161DC
:103220000B48016001203866FEF7F2FE044628686C
:1032300010F0007F23D1FEF7EBFE001B022815D90A
:103240000320BDE8F88F1CE0003802400838024037
:103250000438024000004742800E47427438024062
:10326000403802400070004070380240286810F07A
:10327000007FE0D003E0286810F0007FA0D100209C
:10328000DFE70120DDE770B50446002C05D00025FE
:10329000A56294F8510010B106E0012070BD84F8D9
:1032A0005050204600F030F8022084F85100206889
:1032B000016821F040010160A1686068226908434B
:1032C000E1681143084361690843218B01F40071EF
:1032D0000843E1690843216A0843A16A0843216859
:1032E0000860A069042101EA1040616A084321686E
:1032F00048602068C16921F40061C16165650120F1
:1033000084F85100002070BD10B586B00446142129
:1033100001A8FDF771F94849206888427ED100BFB5
:10332000002000904548006840F480504349086000
:103330000846006800F48050009000BF00BF00BF46
:10334000002000903D481438006840F002003B49DE
:10335000143908600846006800F00200009000BFC1
:1033600000BF00BF002000900846006840F0010048
:1033700008600846006800F00100009000BF00BF30
:103380001820019002200290012003900320049055
:103390000520059001A92A48FEF724FD8020019010
:1033A0000220029001200390032004900520059044
:1033B00001A92448FEF716FD2348244908604FF070
:1033C000C0604860002121488160C1604FF4806185
:1033D0000161002141618161C16101624162FEF7C9
:1033E00077FC08B1FDF788FD00BF1848E0648463EE
:1033F00000BF15481830164908604FF0C06048609B
:103400004021134881600021C1604FF48061016157
:10341000002141618161C161016200E00AE0416215
:10342000FEF756FC08B1FDF767FD00BF0848A06431
:10343000846300BF06B010BD003001404438024034
:10344000000402400000024040640240480A00209C
:10345000A80A00202DE9F84F04460A9E8A469346A2
:103460001F4601254FF0000894F8500001280ED0A7
:10347000012084F85000FEF7CBFD814694F85100FE
:10348000616801280ED0B1F5827F07D102E00220E9
:10349000BDE8F88FA16809B9042803D04FF00208ED
:1034A00000F0CBB8BAF1000F1DD0BBF1000F1AD05D
:1034B000380018D094F85100042802D0052084F870
:1034C000510000206065C4F838B0E787A787C4F8CA
:1034D00030A0E786A786206460642068016811F048
:1034E000400F03D006E04FF00108A6E0016841F06C
:1034F00040010160E068B0F5006F05D06068002809
:1035000048D0012F46D07EE0606808B1012F3AD143
:10351000206B21680088C860206B801C2063E08ECF
:10352000401EE0862FE02068816811F0020F0DD068
:10353000E18E59B1012D09D1216B0988C160206B41
:10354000801C2063E08E401EE08600252068816894
:1035500011F0010F0BD0E18F49B1C068A16B088059
:10356000A06B801CA063E08F401EE0870125FEF762
:103570004FFDA0EB0900B04205D3B6F1FF3F02D0EA
:103580004FF0030859E0E08E0028CCD1E08F0028EE
:10359000C9D13EE0206B216800780873206B401C85
:1035A0002063E08E401EE0862DE02068816811F0E7
:1035B000020F0DD0E18E59B1012D09D1216B09788F
:1035C0000173206B401C2063E08E401EE0860025C6
:1035D0002068816811F0010F0BD0E18F49B1C068FC
:1035E000A16B0870A06B401CA063E08F401EE087B9
:1035F0000125FEF70DFDA0EB0900B04202D3B6F1A4
:10360000FF3F11D186B1E08E0028CED1E08F002897
:10361000CBD14A463146204602F08CF938B14FF002
:1036200001082020606508E04FF0030805E0A0686D
:1036300018B92068C16880680090012084F85100A2
:10364000002084F850004046BDE8F88F704770476E
:1036500030B490F83C20012A1ED0012480F83C4070
:10366000022280F83D200268D2F804C093682CF052
:10367000700C0D6845EA0C0C23F08003496819436F
:10368000C2F804C00268916080F83D40002180F8D3
:103690003C1030BC0020704730BC0220704710B591
:1036A0000446002C03D094F83D0010B107E001203F
:1036B00010BD002084F83C00204600F00DF80220E8
:1036C00084F83D00211D206802F0A0FA012084F852
:1036D0003D00002010BD000038B5044618492068A0
:1036E00088420FD100BF002000901648006840F0CB
:1036F0000400144908600846006800F004000090C7
:1037000000BF1BE010492068884217D100BF00208D
:1037100000900C48006840F008000A49086008461C
:10372000006800F00800009000BF00BF00220521E3
:103730003220FEF713FD3220FEF702FD38BD0000F7
:103740000008004040380240000C0040022180F890
:103750003D1001688A6802F00702062A03D00A6851
:1037600042F001020A60012180F83D1000207047FC
:103770000168CA6842F00102CA600068816801F00D
:103780000701062903D0016841F001010160002012
:1037900070470168CA6822F00102CA600068016AC5
:1037A00041F21112114207D1016A9210114203D164
:1037B000016821F0010101600020704770B50446E6
:1037C00094F83C00012818D0012584F83C500220D0
:1037D00084F83D002068826822F0770222F47F425C
:1037E00082600868502832D00EDC20284DD006DCDC
:1037F00000284AD010284DD147E0022070BD302863
:1038000043D0402846D136E060282AD0702806D020
:10381000B0F5805F3ED0B0F5005F3BD10BE0CB68E8
:103820004A688968206802F066FA2068816841F079
:10383000770181602EE0CB684A688968206802F0D1
:103840005AFA2068816841F48041816022E0CA68A8
:103850004968206802F03EFB5021206802F056FAC9
:1038600018E0CA684968206802F047FB60212068B8
:1038700002F04CFA0EE0CA684968206802F02AFBA0
:103880004021206802F042FA04E022680146104616
:1038900002F03CFA84F83D50002084F83C0070BDF2
:1038A000704770B50446206801694FF0000511F0BB
:1038B000020F17D0C16811F0020F13D0E91E016189
:1038C000012020772068806910F0030F03D0204684
:1038D000FFF7E6FF05E0204600F0D0F8204600F0B4
:1038E00059F925772068016911F0040F18D0C168D3
:1038F00011F0040F14D06FF0040101610220207751
:103900002068806910F4407F03D02046FFF7C8FF8D
:1039100005E0204600F0B2F8204600F03BF925779C
:103920002068016911F0080F18D0C16811F0080F64
:1039300014D06FF008010161042020772068C0696D
:1039400010F0030F03D02046FFF7AAFF05E0204642
:1039500000F094F8204600F01DF9257720680169F1
:1039600011F0100F18D0C16811F0100F14D06FF0C3
:1039700010010161082020772068C06910F4407FA1
:1039800003D02046FFF78CFF05E0204600F076F8D4
:10399000204600F0FFF825772068016911F0010F3B
:1039A00009D0C16811F0010F05D06FF0010101616C
:1039B000204600F011F92068016911F0800F09D04C
:1039C000C16811F0800F05D06FF0800101612046C1
:1039D000FFF73CFE2068016911F0400F09D0C16873
:1039E00011F0400F05D06FF040010161204600F05A
:1039F0001DF92068016911F0200F0BD0C16811F08A
:103A0000200F07D06FF0200101612046BDE8704013
:103A1000FFF71DBE70BD000010B586B0044614212E
:103A200001A8FCF7E9FD1249206888421DD100BFBA
:103A3000002000900F48006840F008000D49086021
:103A40000846006800F00800009000BF00BF4FF477
:103A500080400190022002900020039004900220F8
:103A6000059001A90448FEF7BDF906B010BD00009D
:103A70000008004030380240000C0240704770B52A
:103A800004460D4694F83C0001280DD0012684F828
:103A90003C60022084F83D0042B1042A1AD0082A72
:103AA0002DD00C2A53D13EE0022070BD294620685B
:103AB00002F034F92068816941F0080181612068D1
:103AC000816921F004018161206881692A691143BB
:103AD00081613CE02946206802F058F9206881693C
:103AE00041F4006181612068816921F48061816114
:103AF000206881692A6941EA0221816127E029461B
:103B0000206802F07FF92068C16941F00801C161B5
:103B10002068C16921F00401C1612068C1692A6976
:103B20001143C16113E02946206802F0A7F920681B
:103B3000C16941F40061C1612068C16921F48061FB
:103B4000C1612068C1692A6941EA0221C16184F822
:103B50003D60002084F83C0070BD10B50446002C88
:103B600003D094F83D0010B107E0012010BD002003
:103B700084F83C00204600F00CF8022084F83D0058
:103B8000211D206802F042F8012084F83D00002049
:103B900010BD7047704710B504460122206802F03E
:103BA0009BF82168A1F18040B0F5803004D0A1F1EC
:103BB0008040B0F5823003D1486C40F40040486446
:103BC0002068816801F00701062903D0016841F0EF
:103BD00001010160002010BD38B5044600200090AE
:103BE0000D492068884210D16B4602220B480168BB
:103BF0000B4808F0C3F8009838B14FF080500949DD
:103C00000860BFF34F8FBFF36F8F0749206888426A
:103C100001D1FEF703FA38BD000C0040000000207F
:103C20003DAB000804ED00E0001000407047704715
:103C300010B5044622681068D168526900F00F037D
:103C4000002B0AD110F0200F07D011F0200F04D064
:103C50002046BDE8104002F085B9002B6BD002F081
:103C6000010301F4907C53EA0C0364D010F0010FBF
:103C700006D011F4807F03D0E36B43F00103E363CC
:103C800010F0040F06D012F0010F03D0E36B43F0E5
:103C90000203E36310F0020F06D012F0010F03D00D
:103CA000E36B43F00403E36310F0080F06D012F057
:103CB000010F03D0E26B42F00802E263E26B002ADC
:103CC0002ED010F0200F05D011F0200F02D020468A
:103CD00002F048F920684069C0F38010E16B11F0F0
:103CE000080F00D108B3204602F021F9206841698D
:103CF00011F0400F15D0416921F040014161606B26
:103D000058B118490165606BFDF7DAFE002807D04D
:103D1000606B016DBDE8104008472046FFF787FF44
:103D200010BD2046FFF783FF10BD2046FFF77FFF41
:103D30000020E06310BD10F0800F07D011F0800F5D
:103D400004D02046BDE8104002F0FABA10F0400F4F
:103D5000F0D011F0400FEDD02046BDE8104002F049
:103D6000F4B800001F5F000870B50446002C04D0B2
:103D700094F83900002510B106E0012070BD84F8E8
:103D80003850204600F022F8242084F839002068BA
:103D9000C16821F40051C160204602F031F9206869
:103DA000016921F4904101612068416921F02A01F3
:103DB00041612068C16841F40051C160E563202081
:103DC00084F8390084F83A00002070BD10B586B040
:103DD0000446142101A8FCF70FFC7B4920688842A7
:103DE00056D100BF002000907848006840F01000D5
:103DF000764908600846006800F01000009000BF97
:103E000000BF00BF0020009070481438006840F0E8
:103E100002006E49143908600846006800F002008C
:103E2000009000BF00BF00BF00200090084600685F
:103E300040F0010008600846006800F001000090B2
:103E400000BF00BF8020019002200290012003905B
:103E5000032004900720059001A95D48FDF7C2FFEB
:103E60004FF4007001900220029001200390032083
:103E700004900720059001A95648FDF7B3FF0022E2
:103E800005212520FEF76AF92520FEF759F999E06A
:103E900051492068884258D100BF002000904B480B
:103EA000001F006840F480204849091F0860084648
:103EB000006800F48020009000BF00BF00BF002019
:103EC000009042481438006840F004003F4914391B
:103ED00008600846006800F00400009000BF00BFC2
:103EE0004FF44060019002200290012003900320D3
:103EF00004900720059001A93848FDF773FF384862
:103F0000384908604FF00060486000213548816002
:103F1000C1604FF480610161002141618161C16133
:103F200001624162FDF7D4FE08B1FCF7E5FF00BF76
:103F30002C486063846300BF002205212720FEF720
:103F40000DF92720FEF7FCF83CE02749206888425D
:103F500038D100BF002000901C48006840F02000CD
:103F60001A4908600846006800F02000009000BF71
:103F700000BF00BF0020009014481438006840F0D3
:103F800040001249143908600846006800F04000FB
:103F9000009000BF00BF4FF48440019002200290C7
:103FA00001200390032004900820059001A90F48E8
:103FB000FDF718FF002205214720FEF7CFF8472024
:103FC000FEF7BEF806B010BD0010014044380240B4
:103FD0000004024000000240004800400008024087
:103FE00028600240480C00200014014000180240E4
:103FF00070472DE9F84304460D4691461E4694F855
:104000003900202802D00220BDE8F8834DB3B9F171
:10401000000F26D094F83800012825D0012084F81C
:1040200038000027E763212084F83900FDF7F0FF0E
:104030008046A4F82490A4F82690E08CA0B3E08CED
:10404000401EE084A068B0F5805F10D04346002297
:1040500080212046009602F0A6F9F0B10320BDE8C9
:10406000F8830120BDE8F8830220BDE8F8834346C9
:10407000002280212046009602F095F910B103201D
:10408000BDE8F88328882168C0F3080048602069EB
:1040900008B16D1C05E0AD1C03E0216815F8010BAB
:1040A0004860E08C0028CAD14346002240212046C7
:1040B000009602F078F910B10320BDE8F8832020C3
:1040C00084F8390084F838700020BDE8F883704720
:1040D00000BFFEE702E0642005F0FCFCFCF7A7FC53
:1040E0000028F8D1344AA2F10C01101DFCF7AEFCF7
:1040F000DFED320A9FED320A324A0021324801F0E8
:1041000079FB3248FCF722FC314805F001FC51E014
:10411000294AA2F10C01101DFCF798FC2C492648F5
:10412000001D05F04FFC2448103890ED033AF0EEE6
:10413000432A90ED023AB0EE432A90ED013AF0EEB8
:10414000431A90ED073AB0EE431A90ED063AF0EEBE
:10415000430A90ED053AB0EE430A1C4801F0C2F85C
:10416000154B1C331A1F111F184804F04FFE002076
:1041700011E01149143101EB800191ED000ADFEDEE
:10418000150A20EE200A0C49143101EB800181ED63
:10419000000A411CC8B20328EBDB0748103890ED39
:1041A0000A0AFFEE000A20EE200A80ED0A0A01202A
:1041B00005F090FCACE70000042900200080894550
:1041C00000A08C4598CB00082429002084290020D9
:1041D000A0290020E12E654230B50B46002100BF2A
:1041E00016E00A24B4EB107F05D9302404EB1074D8
:1041F00003F8114005E0412404EB10740A3C03F875
:104200001140000100254C00641C1D554C1CE1B2FE
:104210009142E6DB30BD000070B52DED068B044603
:10422000F0EE408AB0EE608A9FEDFE0AB0EE40AA42
:1042300007F09EFBFC490860FC48006830B1084666
:104240000068FA490968401AF9490860F6480068A8
:10425000F6490860F648006870B1D4F8520000EEE4
:10426000100A78EE400AF24890ED000AB8EE400AD3
:1042700080EE801AB0EE41AA18EE100A4A34A0600F
:10428000206809EE100A29EE080A10EE100AE06014
:10429000606809EE900A29EE8A0A10EE100A206181
:1042A0004A3C002524B99FEDDF0ABDEC068B70BDAA
:1042B000607868BBD4F83A0000EE100ADFEDDD0A42
:1042C000B4EEE00AF1EE10FA0BDDD4F83A0000EE9D
:1042D000100ADFEDD90A30EE600A10EE100AC4F8B9
:1042E0003A00D4F83A0000EE100ADFEDD40AB4EE3A
:1042F000E00AF1EE10FA0BD2D4F83A0000EE100A00
:10430000DFEDCD0A30EE200A10EE100AC4F83A00B4
:10431000D4F83E00C4F84200D4F83A00C4F83E0095
:1043200018EE100AC4F8160018EE900AC4F81A0025
:10433000C5F1010000EE100AB8EEC00A78EE680A76
:1043400020EE201AD4F83E0000EE900A00EE105A3B
:10435000F8EE401AB0EE410A01EEA00A10EE100A83
:10436000C4F83A00207800287ED154F8020F00EEFD
:10437000100AA06B00EE900A20EE200A10EE100A40
:104380002062606A00EE100A606800EE900AA06B7E
:1043900001EE100A00EE810A10EE100A6062A41EFF
:1043A000D4F83200C4F83600D4F82E00C4F8320035
:1043B000D4F83A0000EE100AD4F83E0000EE900A5D
:1043C00030EE600A10EE100A0A346062206800EED7
:1043D000100A606A00EE900A20EE200A10EE100A21
:1043E0002062E06900EE100AA0680A3C00EE900A24
:1043F000B4EEE00AF1EE10FA04DDD4F81200C4F8CD
:10440000260018E0D4F8260000EE100AD4F81200B6
:1044100000EE900AF1EE600AB4EEE00AF1EE10FA56
:1044200009D2D4F8120000EE100AB1EE400A10EEE4
:10443000100AC4F826000E34606900EE100AA06964
:1044400000EE900A70EE200AE06900EE100A30EEED
:10445000800A10EE100A2061206900EE100A54F85C
:104460000E0900EE900A00E023E0B4EEE00AF1EE5F
:1044700010FA04DDD4F80E00C4F81E0060E1D4F890
:104480001E0000EE100AD4F80E0000EE900AF1EEC5
:10449000600AB4EEE00AF1EE10FAEFD2D4F80E00A2
:1044A00000EE100AB1EE400A10EE100AC4F81E0029
:1044B00046E1207801287DD1D4F83A0000EE100AB8
:1044C000D4F83E0000EE900A70EE600A54F8020F35
:1044D00000EE100A20EE800A10EE100A20626068DA
:1044E00000EE100AA06B00EE900A20EE200A10EEFB
:1044F000100A6062A41ED4F83200C4F83600D4F862
:104500002E00C4F83200D4F83A0000EE100AD4F8B5
:104510003E0000EE900AB0EE001A01EE600AD4F8F8
:10452000420000EE900A30EE200A10EE100A0A3423
:104530006062206800EE100A606A00EE900A20EEC9
:10454000200A10EE100A2062A06900EE100AE0694D
:1045500000EE900A70EE200A206A00EE100A70EE5B
:10456000800A606900EE100A30EE800A10EE100A30
:104570006061606900EE100A60680A3C00EE900A13
:10458000B4EEE00AF1EE10FA04DDD4F80E00C4F83F
:104590001E00D5E0D4F81E0000EE100AD4F80E007C
:1045A00000EE900AF1EE600AB4EEE00AF1EE10FAC5
:1045B0000BD200E00AE0D4F80E0000EE100AB1EED3
:1045C000400A10EE100AC4F81E00B9E02078022854
:1045D0007ED1D4F83A0000EE100AD4F83E0000EE86
:1045E000900A70EE600A54F8020F00EE100A20EEF6
:1045F000800A10EE100A2062606800EE100AA06BBC
:1046000000EE900A20EE200A10EE100A6062A41E4E
:10461000D4F83200C4F83600D4F82E00C4F83200C2
:104620000EE0000000000000580100205C010020A6
:1046300060010020000034430000B443000034C394
:10464000D4F83A0000EE100AD4F83E0000EE900ACA
:1046500030EE600A10EE100A0A346062206800EE44
:10466000100A606A00EE900A20EE200A10EE100A8E
:104670002062E06900EE100AA0680A3C00EE900A91
:10468000B4EEE00AF1EE10FA04DDD4F81200C4F83A
:10469000260018E0D4F8260000EE100AD4F8120024
:1046A00000EE900AF1EE600AB4EEE00AF1EE10FAC4
:1046B00009D2D4F8120000EE100AB1EE400A10EE52
:1046C000100AC4F826000E34606900EE100A00E0FB
:1046D00036E0A06900EE900A70EE200AE06900EE74
:1046E000100A30EE800A10EE100A2061206900EEF8
:1046F000100A54F80E0900EE900AB4EEE00AF1EE4A
:1047000010FA04DDD4F80E00C4F81E0018E0D4F846
:104710001E0000EE100AD4F80E0000EE900AF1EE32
:10472000600AB4EEE00AF1EE10FA09D2D4F80E00F5
:1047300000EE100AB1EE400A10EE100AC4F81E0096
:1047400054F81E0F00EE100AE06B00EE900A70EEB7
:10475000200AA06B1E3C00EE100A30EE800AA4E591
:1047600070B52DED0A8B0446F0EE408AB0EE608AFB
:10477000B0EE419AF0EE619A9FEDFC0AB0EE40CAAD
:1047800007F0F6F8FA490860FA48006830B10846C0
:104790000068F8490968401AF7490860F448006859
:1047A000F4490860F448006870B1D4F8520000EE93
:1047B000100A78EE400AF04890ED000AB8EE400A80
:1047C00080EE801AB0EE41CA18EE100AC4F852000A
:1047D00079EE69BAB7EE000AC0EE2BAAD4F84A0007
:1047E0000AEE100AB4EE698AF1EE10FA2FD0B5EE97
:1047F000C08AF1EE10FA12DDB0EE480A05F05EF95B
:1048000039EE400AF7EE000A6AEE200A20EE200A8E
:1048100020EE2A0A10EE100AC4F8560022E0B5EE87
:10482000C08AF1EE10FA1DD2B0EE480A05F046F942
:1048300039EE400AFFEE000A6AEE200A20EE200A56
:1048400020EE2A0A10EE100AC4F856000AE0B4EE70
:10485000698AF1EE10FA05D19FEDC40A10EE100A34
:10486000C4F85600D4F84E000BEE100A2BEE0C0ADA
:1048700010EE100AC4F85A00002524B99FEDBB0AB7
:10488000BDEC0A8B70BD607868BBD4F83A0000EECE
:10489000100ADFEDBA0AB4EEE00AF1EE10FA0BDD11
:1048A000D4F83A0000EE100ADFEDB50A30EE600AE7
:1048B00010EE100AC4F83A00D4F83A0000EE100ADC
:1048C000DFEDB00AB4EEE00AF1EE10FA0BD2D4F844
:1048D0003A0000EE100ADFEDAA0A30EE200A10EED0
:1048E000100AC4F83A00D4F83E00C4F84200D4F8E4
:1048F0003A00C4F83E0018EE100AC4F8160018EE8C
:10490000900AC4F81A00C5F1010000EE100AB8EED2
:10491000C00A78EE680A20EE201AD4F83E0000EEB5
:10492000900A00EE105AF8EE401AB0EE410A01EE7D
:10493000A00A10EE100AC4F83A00207800287CD1B2
:1049400054F8020F00EE100AA06B00EE900A20EE61
:10495000200A10EE100A2062606A00EE100A6068F9
:1049600000EE900AA06B01EE100A00EE810A10EE34
:10497000100A6062A41ED4F83200C4F83600D4F8DD
:104980002E00C4F83200D4F83A0000EE100AD4F831
:104990003E0000EE900A30EE600A10EE100A0A3473
:1049A0006062206800EE100A606A00EE900A20EE55
:1049B000200A10EE100A2062E06900EE100AA068DA
:1049C0000A3C00EE900AB4EEE00AF1EE10FA04DDC3
:1049D000D4F81200C4F8260018E0D4F8260000EE3F
:1049E000100AD4F8120000EE900AF1EE600AB4EE5C
:1049F000E00AF1EE10FA09D2D4F8120000EE100A23
:104A0000B1EE400A10EE100AC4F826000E346069B8
:104A100000EE100AA06900EE900A70EE200AE0692C
:104A200000EE100A30EE800A10EE100A20612069B4
:104A300000EE100A54F80E0900E025E000EE900A9E
:104A4000B4EEE00AF1EE10FA04DDD4F80E00C4F87A
:104A50001E005DE1D4F81E0000EE100AD4F80E002E
:104A600000EE900AF1EE600AB4EEE00AF1EE10FA00
:104A7000EFD2D4F80E0000EE100AB1EE400A10EEAC
:104A8000100AC4F81E0043E1207801286DD1D4F843
:104A90003A0000EE100AD4F83E0000EE900A70EEE4
:104AA000600A54F8020F00EE100A20EE800A10EEA1
:104AB000100A2062606800EE100AA06B00EE900AF7
:104AC00020EE200A10EE100A6062A41ED4F8320014
:104AD000C4F83600D4F82E00C4F83200D4F83A00F6
:104AE00000EE100AD4F83E0000EE900AB0EE001A74
:104AF00001EE600AD4F8420000EE900A30EE200A7F
:104B000010EE100A0A346062206800EE100A606A33
:104B100000EE900A20EE200A10EE100A2062A06932
:104B200000EE100AE06900EE900A70EE200A206A9A
:104B300000EE100A70EE800A606900EE100A30EE96
:104B4000800A10EE100A6061606900EE100A606869
:104B50000A3C00EE900AB4EEE00AF1EE10FA13DD22
:104B6000D4F80E00C4F81E00D2E027E000000000D8
:104B70004C0100205001002054010020000034436B
:104B80000000B443000034C3D4F81E0000EE100A45
:104B9000D4F80E0000EE900AF1EE600AB4EEE00ADE
:104BA000F1EE10FA09D2D4F80E0000EE100AB1EEC0
:104BB000400A10EE100AC4F81E00A9E0207802286E
:104BC0007ED1D4F83A0000EE100AD4F83E0000EE90
:104BD000900A70EE600A54F8020F00EE100A20EE00
:104BE000800A10EE100A2062606800EE100AA06BC6
:104BF00000EE900A20EE200A10EE100A6062A41E59
:104C0000D4F83200C4F83600D4F82E00C4F83200CC
:104C1000D4F83A0000EE100AD4F83E0000EE900AF4
:104C200030EE600A10EE100A0A346062206800EE6E
:104C3000100A606A00EE900A20EE200A10EE100AB8
:104C40002062E06900EE100AA0680A3C00EE900ABB
:104C5000B4EEE00AF1EE10FA04DDD4F81200C4F864
:104C6000260018E0D4F8260000EE100AD4F812004E
:104C700000EE900AF1EE600AB4EEE00AF1EE10FAEE
:104C800009D2D4F8120000EE100AB1EE400A10EE7C
:104C9000100AC4F826000E34606900EE100AA069FC
:104CA00000EE900A70EE200AE06900EE100A30EE85
:104CB000800A10EE100A2061206900EE100A00E060
:104CC00026E054F80E0900EE900AB4EEE00AF1EE88
:104CD00010FA04DDD4F80E00C4F81E0018E0D4F871
:104CE0001E0000EE100AD4F80E0000EE900AF1EE5D
:104CF000600AB4EEE00AF1EE10FA09D2D4F80E0020
:104D000000EE100AB1EE400A10EE100AC4F81E00C0
:104D100054F81E0F00EE100AE06B00EE900A70EEE1
:104D2000200AA06B1E3C00EE100A30EE800AA7E5B8
:104D300010B500B102B910BD801C00F8021C136848
:104D40000360536843609368836010EE103AC36059
:104D500010EE903A0361801E9FED102A12EE103A79
:104D6000C0F83630C0F832301E3003619FED0B2A98
:104D700012EE103A0360C360836043601E38C0F8CF
:104D80004230C0F83E3040F83A3F11EE103A03612D
:104D900011EE903A43613A3800BFCCE700000000C2
:104DA00010B50D480D4908600320486000210B48EC
:104DB0008160C1604FF430210161002141610176C1
:104DC00041768176C17601774177FCF7DCFB08B14B
:104DD000FCF792F810BD000000640040A00900201C
:104DE00008B500BF002000901A48006840F4800019
:104DF000184908600846006800F48000009000BF71
:104E000000BF00BF002000900846006840F400107A
:104E100008600846006800F40010009000BF00BF62
:104E2000002205210C20FDF799F90C20FDF788F9E7
:104E3000002205213A20FDF791F93A20FDF780F98B
:104E4000002205213B20FDF789F93B20FDF778F989
:104E500008BD00003038024000B5BBB006F030F9A4
:104E60003B4908600846006808B93BB000BD3948B6
:104E7000FEF77EFC384903C9CDE93901002211460D
:104E800039A804F063FE354908601C223249083114
:104E900032A8FBF77FFB002132A804F028FE30493E
:104EA00008601C222C4924312BA8FBF773FB00213E
:104EB0002BA804F01CFE2B4908601C222649403117
:104EC00024A8FBF767FB002124A804F010FE264964
:104ED00008601C2220495C311DA8FBF75BFB002108
:104EE0001DA804F004FE214908601C221A497831EB
:104EF00016A8FBF74FFB002116A804F0F8FD1C498B
:104F000008601C22144994310FA8FBF743FB0021D1
:104F10000FA804F0ECFD174908601C220E49B031BF
:104F200008A8FBF737FB002108A804F0E0FD1249B0
:104F300008601C220849CC3101A8FBF72BFB00219B
:104F400001A804F0D4FD0D49086000BF8DE7000002
:104F500000000020480B002060CA00082400002048
:104F600004000020080000200C0000201000002099
:104F700014000020180000201C0000202000002049
:104F800000B587B0142102A8FBF736FB00BF002054
:104F900001903D48006840F002003B490860084627
:104FA000006800F00200019000BF00BF00BF0020B9
:104FB00001900846006840F040000860084600681C
:104FC00000F04000019000BF00BF00BF0020019032
:104FD0000846006840F0010008600846006800F0DC
:104FE0000100019000BF00BF00BF002001900846F3
:104FF000006840F0080008600846006800F00800FB
:10500000019000BF00BF00BF00200190084600686B
:1050100040F0040008600846006800F004000190B9
:1050200000BF00BF00BF002001900846006840F0AC
:10503000800008600846006800F08000019000BF12
:1050400000BF012210211148FCF7DAFF01221146AE
:105050000F48FCF7D5FF102002900120039000209C
:1050600004900220059002A90848FCF7BBFE01202D
:1050700002900390002004900220059002A90448A9
:10508000FCF7B0FE07B000BD30380240000002401F
:105090000004024010B50F480F4908604FF48270B9
:1050A000486000210C488160C1600221016101213A
:1050B0004161490281613821C1610021016241627F
:1050C00081620A21C162FEF7DEF808B1FBF714FF26
:1050D00010BD000000300140F009002000B58DB087
:1050E000002009900A900B900C90079008901C21CA
:1050F0006846FBF781FA2048204908600020486094
:1051000000211E48816045F20721C1600021016134
:105110008161FEF7C4FA08B1FBF7EEFE4FF4805050
:10512000099009A91548FEF749FB08B1FBF7E4FE11
:105130001248FEF712FD08B1FBF7DEFE00200790D3
:10514000089007A90D48FEF783FA08B1FBF7D4FED3
:10515000602000900020019002900490082269468F
:105160000648FEF78CFC08B1FBF7C6FE0348FEF7C5
:1051700053FC0DB000BD000000080040080B0020EB
:1051800000B587B000200390049005900690019030
:10519000029015481549086042F2D000486000218D
:1051A0001248816040F28111C160002101618021BB
:1051B0008161FEF774FA08B1FBF79EFE4FF4805050
:1051C000039003A90948FEF7F9FA08B1FBF794FE2A
:1051D00000200190029001A90448FEF739FA08B1B5
:1051E000FBF78AFE07B000BD000C0040480B002012
:1051F00010B50B480B4908604FF4E13048600021BE
:1052000008488160C16001610C2141610021816118
:10521000C161FEF7A9FD08B1FBF76EFE10BD0000ED
:1052200000100140880B002010B50A480A490860A8
:105230000A484860002108488160C16001610C2172
:10524000416100218161C161FEF78EFD08B1FBF76C
:1052500053FE10BD00480040C80B0020A08601008E
:1052600010B50B480B4908604FF4E130486000214D
:1052700008488160C16001610C21416100218161A8
:10528000C161FEF771FD08B1FBF736FE10BD0000ED
:1052900000140140080C002010B500220D490E48F2
:1052A00001F00CFD08B1FBF727FE0C490A4801F09C
:1052B00062FF08B1FBF720FE0949074801F055FAE3
:1052C00008B1FBF719FE044802F006F808B1FBF735
:1052D00013FE10BD2C000020A80C0020C0020020EE
:1052E0007C00002000B52DED068B0246B0EE403A62
:1052F000F0EE603AB0EE414AF0EE615AF0EE424A0A
:10530000B0EE625AF5EEC05AF1EE10FA09D1F5EEA0
:10531000C04AF1EE10FA04D1B5EEC05AF1EE10FA1F
:105320007ED065EEA50A44EEA40A45EE050AB0EE6D
:10533000600A04F061FBF0EE402A25EEA20AF0EECE
:10534000405A24EEA20AF0EE404A25EE220AB0EEC0
:10535000405A92ED010AD2ED030A20EE200AD2ED66
:10536000000A92ED021AF0EE408A40EEC18A92EDF8
:10537000000AD2ED010A20EE200AD2ED020A92EDD7
:10538000031AF0EE409A40EE819AD2ED000A92EDB7
:10539000001AB6EE000A10EE810AD2ED030A92ED71
:1053A000031AB0EE409A00EE819A24EE890AF0EEDC
:1053B000407A45EE697A25EE280AB0EE40AA05EE5D
:1053C000C9AA25EEA90AB0EE408A04EEE88A7C4814
:1053D00090ED000AB5EEC00AF1EE10FA40DD90ED56
:1053E000000A60EE270A774890ED000A9FED761AD2
:1053F00000EE810A80ED000A714890ED000A60EE2F
:105400000A0A724890ED000A9FED6F1A00EE810AB9
:1054100080ED000A6A4890ED000A60EE080A00E09C
:1054200046E06B4890ED000A9FED671A00EE810A96
:1054300080ED000A634890ED000A33EE000AB0EEFA
:10544000403A624890ED000A33EE800AF0EE403AAE
:105450005F4890ED000A34EE000AB0EE404A0EE0DC
:105460009FED5C0A574880ED000A9FED5A0A5748A5
:1054700080ED000A9FED570A554880ED000A564816
:10548000D0ED000AB0EE430A00EEA70AB0EE403AB3
:10549000D0ED000AB0EE630A00EE8A0AF0EE403A60
:1054A000D0ED000AB0EE440A00EE880AB0EE404AA1
:1054B0009FED4A0A23EE000AB0EE403A9FED470AFC
:1054C00023EE800AF0EE403A9FED440A24EE000AF3
:1054D000B0EE404A92ED006AD2ED016A92ED027A96
:1054E000B1EE660A20EE030A07EE630AD2ED030A64
:1054F00000EEC40AD2ED000A30EE200A82ED000A66
:1055000026EE030A07EE040AD2ED030A00EEE30AD0
:10551000D2ED010A30EE200A82ED010A26EE230ABE
:1055200006EEC40AD2ED030A00EE830AD2ED020AA7
:1055300030EE200A82ED020A26EE040A06EEA30AE5
:1055400007EE430AD2ED030A30EE200A82ED030A89
:10555000D2ED000A60EEA00A92ED011AD2ED011A16
:1055600041EE210A92ED021AD2ED021A41EE210A11
:1055700092ED031AD2ED031A41EE210AB0EE600A51
:1055800004F03AFAF0EE402A92ED000A20EE220AE8
:1055900082ED000A92ED010A20EE220A82ED010A54
:1055A00092ED020A20EE220A82ED020A92ED030A2F
:1055B00020EE220A82ED030ABDEC068B00BD00003E
:1055C0003C010020400100206F12833A440100207A
:1055D0004801002000000000380100206F12033A4B
:1055E00000BFFEE700BFFEE710B50248FCF75EFF14
:1055F00010BD0000440F002070B504462068056C03
:1056000000EB4111D1F8080B2369134E4FF400420F
:10561000012B10D0114B9D4204D110F4004F01D04A
:10562000C1F8082B2046FDF799FAB54211D9206937
:10563000012808D00DE0B542F4D910F4004FF1D0A4
:10564000C1F8082BEEE704F571720121206802F021
:105650003DFA002070BD00000A30544F0A31544F0B
:105660002DE9F04104460E462068016C00EB46151A
:10567000D5F8080B226920234FF4004C012A08D0EA
:10568000314A914259D110F4004F4CD0C5F808CBA3
:1056900057E02E4A10F0080F13D0914204D910F4AD
:1056A000004F01D0C5F808CB2046FDF757FA04F5A6
:1056B00071720121206802F009FA0820C5F8080B70
:1056C0003FE010F0200F02D0C5F8083B39E010F0A1
:1056D000280F36D1914205D910F4004F02D0C5F8F9
:1056E00008CB2EE0C6EBC60004EB8000D5F8102BEB
:1056F000D0F80412C2F312028A1AC0F81422D0F8A9
:1057000008221144C0F80812F1B22046FCF7ADFDA2
:10571000BEB9D4F81002A0B904F571720121206855
:1057200002F0D4F90DE010F0200F01D0C5F8083BCD
:10573000F1B22046FCF799FD03E0F1B22046FCF7F8
:1057400094FD0020BDE8F0810A31544F0A30544FD7
:105750002DE9F84F07460E46D7F80080C6EBC60085
:1057600007EB800000F13C046169A069884202D91E
:105770000120BDE8F88F081AA168814200D20846CE
:10578000C01C4FEA900A08EB461915E0151AA268EA
:10579000AA4200D21546E81C4FEA900A387C0090D5
:1057A000ABB2F2B24046E16802F058FCE06828442F
:1057B000E060A0692844A061D9F8180980B250457A
:1057C00005D36269A069904201D2002ADED1A169A5
:1057D000606988420AD806F00F00012101FA00F042
:1057E000D8F8341821EA0000C8F834080020BDE8D1
:1057F000F88F000010B500B102B910BD801C00F890
:10580000021C13680360536843609368836010EE62
:10581000103AC36010EE903A0361801E9FED0D1A9E
:1058200011EE103AC0F83630C0F832301E30036145
:105830009FED081A11EE103A0360C3608360436065
:105840001E38C0F84230C0F83E30C0F83A3000BFD1
:10585000D3E700000000000010B5234B1B685B6914
:1058600043F04003204C246863611F4B1B68DB68D6
:1058700043F010031C4C2468E3601C4B1B681B683E
:1058800023F00103194C2468236007E0174B1B68C1
:105890001B6823F00103154C24682360134B1B681D
:1058A0001B6803F00103002BF0D1114B0F4C24684F
:1058B000A3600E4B1B68D8600C4B1B6819610B4B27
:1058C0001B685A60094B1B681B6843F48023074C14
:1058D00024682360054B1B681B6843F00103034CDD
:1058E0002468236010BD0000C80B0020480C002075
:1058F00004480040FEB50D48B0F90440B0F9065028
:10590000B0F90060C07A8DF808000848807A8DF8F8
:105910000900BDF908702B46224640F211110448D7
:10592000CDE9006702F04EFFFEBD0000AC2900206B
:10593000A009002010B582B004461548DFF854C015
:105940000068B0FBFCF04FF47A7C00FB0CF0019097
:105950006068B0F5827F0ED10B4600920022802154
:10596000204600F019F880B1606D40F020006065BD
:1059700002B0032010BD019838B10198401E01907B
:105980002068806810F0800FF5D102B0002010BDB3
:105990008C00002000366E012DE9F0410446069E81
:1059A000884617461D462068806838EA000016D0F1
:1059B0000020B84210D0B5F1FF3F05D0FCF728FB1E
:1059C000801BA8420DD265B12068806838EA0000CB
:1059D00033D00020B842EED10020BDE8F081012094
:1059E000E7E72068416821F0E00141606068B0F5B8
:1059F000827F0BD1A068B0F5004F02D0B0F5806F68
:105A000004D12068016821F040010160A06AB0F56E
:105A1000005F09D12068016821F40051016020680D
:105A2000016841F400510160012084F85100002018
:105A300084F850000320BDE8F0810120CAE700008F
:105A400004490968C97A012902D1024A82F8801200
:105A500070470000602A002010B5114890ED350A0B
:105A600080ED9A0A90ED680A80ED9B0A40680088F4
:105A700000EE100AB8EE400A094880ED9C0A90ED4D
:105A8000360A80ED9D0A90ED690A80ED9E0A05496F
:105A900003C906F058FE0249C1F87C0210BD00009F
:105AA000602A0020F800002010B5502080F31188F3
:105AB000BFF34F8FBFF36F8F05F060FF18B104493C
:105AC0004FF080500860002080F3118810BD000066
:105AD00004ED00E000B593B0302107A8FAF78CFD83
