:020000040800F2
:100000007076002031030008A34B0008F53F00087C
:10001000A14B0008D30C0008CD74000800000000BC
:100020000000000000000000000000007102000855
:10003000350F000800000000CD02000865510008DF
:100040004B0300084B0300084B0300084B03000858
:100050004B0300084B0300084B0300084B03000848
:100060004B0300084B0300084B0300084B03000838
:100070007D0E00084B0300084B0300084B030008EB
:100080004B0300084B0300084B030008090D000850
:10009000F10C0008FD0C00084B0300084B0300089E
:1000A0004B0300084B0300084B0300084B030008F8
:1000B0004B0300084B0300084B0300084B030008E8
:1000C0004B0300084B0300084B0300084B030008D8
:1000D0004B030008B55700084B030008C157000840
:1000E0004B0300084B0300084B0300084B030008B8
:1000F0004B0300084B0300084B0300084B030008A8
:100100004B0300084B030008355200084B0300085E
:100110004B0300084B0300084B0300084B03000887
:100120004B030008890E0008950E0008A10E000878
:100130004B0300084B0300084B0300084B03000867
:10014000150D0008210D00084B030008A54B000801
:100150004B030008AD0E00084B030008815800084F
:100160004B0300084B0300084B0300084B03000837
:100170004B0300084B0300084B030008000000007D
:100180004B0300084B03000800F002F800F060F891
:100190000AA090E8000C82448344AAF10107DA45E2
:1001A00001D100F055F8AFF2090EBAE80F0013F0D4
:1001B000010F18BFFB1A43F00103184724AA0000DF
:1001C00044AA00000A444FF0000C10F8013B13F061
:1001D000070408BF10F8014B1D1108BF10F8015BA0
:1001E000641E05D010F8016B641E01F8016BF9D193
:1001F00013F0080F1EBF10F8014BAD1C0C1B09D1EA
:100200006D1E58BF01F801CBFAD505E014F8016B5B
:1002100001F8016B6D1EF9D59142D6D370470000ED
:100220000023002400250026103A28BF78C1FBD8FF
:10023000520728BF30C148BF0B6070471FB50AF096
:10024000F7F89DE8030000F05FFA1FBD10B510BD80
:1002500000F01AFB1146FFF7F1FF08F05FFB00F01A
:1002600038FB03B4FFF7F2FF03BC00F06FFB0000A4
:100270002C4B19680868B0E8F04F80F30988BFF389
:100280006F8F4FF0000080F311887047000000006E
:1002900008480068006880F308884FF0000080F389
:1002A000148862B661B6BFF34F8FBFF36F8F00DF64
:1002B00000BF00BF08ED00E0DFF80C00016841F46A
:1002C00070010160704700BF88ED00E0EFF3098026
:1002D000BFF36F8F134B1A681EF0100F08BF20ED8D
:1002E000108A20E9F04F106009B44FF0500080F3FD
:1002F0001188BFF34F8FBFF36F8F09F0D1F94FF023
:10030000000080F3118809BC19680868B0E8F04F54
:100310001EF0100F08BFB0EC108A80F30988BFF3FD
:100320006F8F704798000020EFF305807047000042
:100330000948804709480047FEE7FEE7FEE7FEE779
:10034000FEE7FEE7FEE7FEE7FEE7FEE704480549B5
:10035000054A064B70470000255200088901000835
:100360007070002070760020707200207072002083
:1003700070B5064600F0ACF9056806F10B0020F0F8
:100380000704B4429CBF002070BD2B466A68BAB116
:100390001068A04210D304F1080188423CBF5068A5
:1003A000586007D35168101941601168091B01603A
:1003B00058601460101D70BD13465268002AE7D1C2
:1003C0002146284600F08CF90028DED170BD70B5BA
:1003D0000446051F00F07CF90068002C14BF446837
:1003E00070BD002C18BFAC423CBF20466468F8D3F7
:1003F00001680A18AA4218BF456003D12A68054659
:100400001144016028684119A1421CBF6C6070BD95
:100410006168696021680844286070BD53EA020C75
:1004200000F069802DE9F04B4FF00006002B1FBF54
:10043000B3FA83F503FA05F424FA05F65E4012BF19
:100440001643B2FA82F502FA05F4C5F120051EBF83
:1004500022FA05FC44EA0C04203556EA044C4FEA23
:10046000144418BF641C4FF000084FF0000990427C
:1004700071EB030C39D3002919BFB1FA81F701FAE6
:1004800007F6B0FA80F700FA07F6C7F120071EBF9B
:1004900020FA07FC46EA0C062037B6FBF4FCA7EB73
:1004A0000507103F07F01F0BCBF120060CFA0BFBE2
:1004B0002CFA06F644BFB3460026202FA4BF5E46A2
:1004C0004FF0000B5BEA060C08BF4FF0010B19EB75
:1004D0000B09ABFB027C48EB0608C01B06FB02CCF9
:1004E0000BFB03CC71EB0C01C1E70B460246414606
:1004F0004846BDE8F08B13B54FF000004FF0000107
:10050000AFF30080BDE81C407047032A40F2308002
:1005100010F0030C00F0158011F8013BBCF1020F44
:10052000624498BF11F801CB00F8013B38BF11F8C5
:10053000013BA2F1040298BF00F801CB38BF00F8DC
:10054000013B11F0030300F06780083AC0F0088017
:1005500051F8043B083A51F804CBA0E80810F5E73D
:10056000121D5CBF51F8043B40F8043BAFF3008020
:10057000D20724BF11F8013B11F801CB48BF11F895
:10058000012B24BF00F8013B00F801CB48BF00F865
:10059000012B7047431A28BF9A427FF6B6AF032A51
:1005A0001044114440F2268010F0030F1EBF11F8D2
:1005B000013D521E00F8013D10F0030F7FF4F6AF2D
:1005C00011F0030300F0F480083AC0F00B8051F8FA
:1005D000043D083A51F804CD40F8043D40F804CDFC
:1005E000FFF7F3BF121D5CBF51F8043D40F8043D16
:1005F000AFF30080D20724BF11F8013D11F801CDFF
:1006000048BF11F8012C24BF00F8013D00F801CDCE
:1006100048BF00F8012C704710B5203AC0F00B809D
:10062000B1E81850203AA0E81850B1E81850A0E8F6
:100630001850BFF4F5AF5FEA027C24BFB1E8185050
:10064000A0E8185044BF18C918C0BDE810405FEAC0
:10065000827C24BF51F8043B40F8043B08BF70473C
:10066000D20728BF31F8023B48BF11F8012B28BF41
:1006700020F8023B48BF00F8012B70474FF0000202
:1006800000B5134694469646203922BFA0E80C5088
:10069000A0E80C50B1F12001BFF4F7AF090728BF63
:1006A000A0E80C5048BF0CC05DF804EB890028BFDF
:1006B00040F8042B08BF704748BF20F8022B11F008
:1006C000804F18BF00F8012B704770477047704784
:1006D000004870471470002070477047704770479B
:1006E00038B504460A4600206946AFF3008000286A
:1006F00008BF38BD02460099204600F08BF8012063
:1007000038BD012000F0B8B8F8B5AFF30080054659
:1007100000200C46102000BF0646A819A0420DD9A3
:10072000324669460020AFF30080070008BF00F0A2
:10073000A3F80098A04218BF0546C419FFF7C8FFE8
:1007400005600746F01D20F007004619284600F016
:100750000AF8B44208BFF8BDA21B31463868BDE8AC
:10076000F84000F057B800210160C0E9011070475F
:100770001020704710B500F049F8006810BD10B5A2
:10078000044600F043F8046010BD431A28BF9A42A3
:100790007FF642AF104410F0030F11441EBF11F852
:1007A000013D521E00F8013D10F0030F7FF4F6AF3B
:1007B000103AC0F00A8010B531E91850103A20E91B
:1007C0001850BFF4F9AFBDE81040530724BF31E91A
:1007D000081020E9081044BF51F8043D40F8043DDA
:1007E00012F0030F08BF7047D20728BF31F8023D4F
:1007F00048BF11F8012C28BF20F8023D48BF00F87F
:10080000012C7047004870470C700020004870476A
:100810000C700020034640688C46002818BF8842B0
:100820003CBF03464068F8D318681844884207D094
:100830000CF1030020F00700001D411A521A014676
:10084000081D0A60FFF7C3BD1FB584B000200A9CD5
:1008500006AB04AA02A90094AFF3008018B1DDE949
:10086000020108B010BD0348204000F040F800200D
:100870000146F6E70000207C10B500F03FF8BDE827
:10088000104000F02FB870477546FFF7BBFFAE462B
:1008900005006946534620F00700854618B020B58C
:1008A000FFF754FDBDE820404FF000064FF0000771
:1008B0004FF000084FF0000B21F00701AC46ACE808
:1008C000C009ACE8C009ACE8C009ACE8C0098D4675
:1008D000704710B50446AFF300802046BDE81040D5
:1008E000FFF7BFBC002801D000F030B8704710B54A
:1008F00000F04CF8BDE81040FFF7F4BF10B5012838
:1009000005D0002103A000F027F8012010BD09A1A7
:10091000F8E7000053494752544D454D3A204F7572
:1009200074206F662068656170206D656D6F7279E7
:10093000000000003A2048656170206D656D6F729F
:100940007920636F727275707465640001491820B4
:10095000ABBEFEE72600020070B505460C460A2035
:1009600000E06D1C00F068F835B128780028F8D157
:1009700002E0641C00F060F814B120780028F8D17F
:10098000BDE870400A2000F057B8000010B50228FA
:1009900003D0410103D50DA112E0002010BD0101DB
:1009A00001D50FA10CE0C10001D511A108E0810023
:1009B00001D512A104E0400001D513A100E00021FF
:1009C00015A0FFF7C9FF012010BD0000496E766138
:1009D0006C6964204F7065726174696F6E0000000D
:1009E000446976696465204279205A65726F000017
:1009F0004F766572666C6F7700000000556E646517
:100A000072666C6F77000000496E657861637420D0
:100A1000526573756C7400005349474650453A203F
:100A200041726974686D6574696320657863657087
:100A300074696F6E3A20000008B569468DF80000B1
:100A40000320ABBE08BD0000B7EE000A80ED000A2F
:100A50009FED040A80ED010A80ED020A80ED030A91
:100A6000704700000000000001221021014801F041
:100A700009BA00000000024000221021014801F0E4
:100A800001BA000000000240704700000122114638
:100A9000014801F0F7B900000004024000220121E2
:100AA000014801F0EFB9000000040240704730B582
:100AB00004464FF47A7502E0284600F004F8641EFC
:100AC000A4B2F9D230BD70B54FF0E02400226569C0
:100AD000A8214843A169A3698B42FCD002D2A1EBB3
:100AE000030102E0A5EB030631440A4419468242A1
:100AF000F1D370BD10B5FFF7C7FFFFF7D7FF06F0C2
:100B000063FF044606F0E8FF204310BD2DE9FC41D9
:100B10000746002016460D4600900190FFF7ACFFF7
:100B2000922000F0BDF806226946122000F09AF8E3
:100B3000FFF79AFF9DF801009DF80010000200B237
:100B4000084300EE100A464CB8EEC00AD4ED000A85
:100B500020EE200A85ED000A9DF803009DF80210A2
:100B6000000200B2084300EE100AD4ED000AB8EE0D
:100B7000C00A20EE200A85ED010A9DF805009DF8C7
:100B80000410000200B2084300EE100AB8EEC00ADA
:100B900020EE200A85ED020AFFF780FF0822694651
:100BA000002000F05FF8FFF771FF9DF800000F28AC
:100BB00030D19DF803009DF80210000200B20843F6
:100BC00000EE100AD4ED010AB8EEC00A20EE200AA9
:100BD00087ED000A9DF805009DF80410000200B2A0
:100BE000084300EE100AD4ED010AB8EEC00A20EE68
:100BF000200A87ED010A9DF807009DF80610000203
:100C000000B2084300EE100AB8EEC00A20EE200A37
:100C100087ED020AFFF730FFA22000F041F8022220
:100C20006946222000F01EF8FFF71EFF9DF8000025
:100C30009DF80110C00040EA5110B0F5806F01DB53
:100C4000A0F5006000EE100AB4EE001AF8EEC00A3B
:100C5000B3EE070A00EE810A86ED000ABDE8FC81CA
:100C60000802002070B514460D4640F0800000F0E8
:100C700017F806E0552000F013F8641E05F8010B84
:100C8000E4B2002CF6D170BD10B50C4640F08000E7
:100C900000F006F8552000F003F8207010BD0000A9
:100CA00001B582B04FF47A700090012301AA02A925
:100CB000024802F09BFA9DF804000EBD04050020D6
:100CC00010B50C46FFF7ECFF2046BDE81040FFF7DB
:100CD000E7BFFEE710B5054802F006FC082103480F
:100CE00002F060FEBDE8104006F064BF1C06002064
:100CF000014800F058BB0000B4040020014800F097
:100D000052BB0000B4040020014800F04CBB0000BE
:100D1000B4040020014800F046BB0000DC040020C1
:100D2000014800F040BB0000DC04002000B587B0A3
:100D30004FF4007200920022029203920422049265
:100D4000064A030A13705070080A9070D17006ABFF
:100D50006946034800F0C8F907B000BDF60100205D
:100D6000DC04002000B587B040F2FF1100910021A3
:100D700002910391022104910549020A06AB0A700F
:100D800048700A466946034800F0AEF907B000BD56
:100D9000F2010020DC04002000B587B040F2FF2102
:100DA0000091002102910391022104910549020A58
:100DB00006AB0A7048700A466946034800F094F989
:100DC00007B000BDF4010020B404002000207047EB
:100DD0000020704710B500220449054804F078FF50
:100DE0000449034804F067FF002010BDD815002017
:100DF00098080020D80D002010B50A460968FF2980
:100E000009D80021084B03E0445C5C54491C89B2BA
:100E100014688C42F8D80146044804F04CFF03489B
:100E200004F022FF002010BD740D0020980800205F
:100E300000207047094A10B5D2F8BC22D2F814221B
:100E40000AB1012010BD0A460146044804F040FFE3
:100E5000BDE81040014804F0B5BF0000980800202C
:100E600010B5052008F0E4FA034908B1002000E0BD
:100E70000120087010BD0000E6010020014800F0CC
:100E8000BDBD000030070020014800F0B7BD0000E4
:100E900090070020014800F0B1BD00005C05002073
:100EA000014800F0ABBD0000BC050020014800F087
:100EB000A5BD0000F007002001681823CAB2103A4F
:100EC000B2FBF3F2054B6FF30901032A9B5CC36588
:100ED00000D9091D816508467047000090A70008E9
:100EE00010B5014600208B698A6A4FF0C07453B177
:100EF000B3F5005F15D072B1012A0CD0022A0AD0D6
:100F0000032A09D104E01AB1012A06D0022A03D12A
:100F1000C96AC90100D5012010BDC96AA142FAD031
:100F200010BD002AF7D0012AF2D0022AF3D0032AFA
:100F3000F3D010BD704772B6FEE7000010B5054C47
:100F400004E000BF10F8013B5340E25C491EF9D2B7
:100F5000104610BD78A800082DE9F0415249534CC5
:100F60008EB00978002929D0514AB2F8922400BFE6
:100F7000ADF80420B4F9042002F5257200EE102A21
:100F8000F8EEC00AB3EE040A80EE801AFCEEC10A45
:100F900010EE902AD6B2B4F9062002F5257200EEC2
:100FA000902AF8EEE00A80EE801ABCEEC10A10EE3C
:100FB000102AD5B204D140F0010005E0A28AD7E79B
:100FC00000F0FE00012908D000F0FD07002008F025
:100FD0002FFA28B147F0040704E040F00207F5E7D4
:100FE00007F0FB07052008F023FA10B147F00801CD
:100FF00001E007F0F701E27AA37A2E4C2E4894F82C
:101000007A71032F077845D007F0FE0707702B4F42
:1010100097F84C75012F07783FD007F0FD07077050
:1010200094F87C41012CFCB23AD004F0FB0404702B
:10103000E0B28DF808608DF80C308DF80D008DF859
:101040000950BDF804008DF80A10ADF80E00082410
:101050008DF80B20DFF8688040F2111702AE2046B1
:10106000FFF786F905460020CDE9080405970790AB
:10107000315C2954401CC0B2A042F9D30CAB2A46C3
:1010800005A9404600F030F82846FFF7A0F90EB059
:10109000BDE8F08147F00107B8E747F00207BEE777
:1010A00044F00404C3E70000E6010020C46A002005
:1010B0004C6B002020690020A2010020106300205A
:1010C000B404002090F82020012A07D0022A05D07D
:1010D000416A41F480214162012070470068426901
:1010E0000A43426100207047F0B590F82050046830
:1010F000A468012D05D0022D03D0416A41F480215E
:1011000053E014F0406F01D1E5004BD5C4F3016406
:10111000022C03D9416A41F4000146E00125A540B3
:101120001D608D684FF4C0739DB1CE6835434E6825
:1011300045EAC605066803EB0417F5514FF4C2757E
:10114000076805EB04150E697E51097D012905D05C
:1011500009E00E88CD6845EA4655EBE701684E592F
:1011600046F480764E511179D2F805504FF4C67688
:1011700041EA0525016806EB04168D511178D2F875
:1011800001204FF4C47541EA0221026805EB041501
:101190005151006803EB0411425842F001024250E1
:1011A0000020F0BD416A41F4001141620120F0BD10
:1011B00010B590F82020012A07D0022A05D0416AF4
:1011C00041F480214162012010BD3B48D0F800224B
:1011D00042F00102C0F80022D0F8002222F47C5232
:1011E000C0F80022D0F800224B6A42EA0322C0F87D
:1011F00000220A7D02F01F0301229A40D0F81C321F
:101200009343C0F81C32CB69B3B9D0F80C32934386
:10121000C0F80C328C894B6864F31F434C6900EBB7
:10122000C404C4F840320C890B6864F31F434C6952
:1012300000EBC404C4F84432CB69012B16D1D0F8BA
:101240000C321343C0F80C320C884B6864F31F4314
:101250004C6900EBC404C4F840320C89CB6864F3D9
:101260001F434C6900EBC404C4F844328B69002B63
:10127000D0F804320ED01343C0F804320B69002BAF
:10128000D0F8143208D01343C0F81432096A012987
:1012900004D008E09343EFE79343F5E7D0F81C123E
:1012A0001143C0F81C12D0F8001221F00101C0F85F
:1012B0000012002010BD000000640040704730B5EF
:1012C00090F82040012C05D0022C03D0416A41F453
:1012D00080215DE00468002955D02469A40754D01A
:1012E0004FF4D874056804EB01142D5915F004056A
:1012F000956005682D594ED0ED08556005682C594C
:1013000004F00204D4604FF4DA74056804EB0114AD
:101310002D5905F00F05156105682D59C5F30725F1
:10132000956105682C59240C54614FF4DC720468F3
:1013300002EB0112A4581C700468A458240A5C70C3
:101340000468A458240C9C700468A258120EDA7029
:101350004FF4DE72046802EB0112A4581C71046899
:10136000A458240A5C710468A458240C9C71046875
:10137000A258120EDA71006881B1016941F02001B2
:101380000161002030BDE468A8E7416A41F4001122
:101390004162012030BD6D0D1560AFE7C16841F0BD
:1013A0002001C160EDE72DE9F05F054600680024EB
:1013B0004669D0F804908768D0F80CB0D0F810A037
:1013C000D0F81880F10748D0F90714D001218160C6
:1013D000B80703D5284600F0B0FA0CE0780702D52C
:1013E0004FF4006407E0380702D54FF4805402E060
:1013F000284600F0A1FAF80516D529684FF4807048
:101400008860B80503D5284600F099FA0CE0780505
:1014100002D544F4005407E0380502D544F4804472
:1014200002E0284600F08AFAF80316D529684FF43E
:1014300080308860B80303D5284600F082FA0CE0BB
:10144000780302D544F4004407E0380302D544F49D
:10145000803402E0284600F073FA300707D55FEACF
:10146000CB6004D52968102044F40074C86070076C
:101470004FF0080707D55FEA0B7004D52868C760EE
:10148000284600F0B1F9B00706D52868C068800783
:1014900002D0284600F0AAF9700607D55FEACA60B4
:1014A00004D52968102044F480640861B00607D58B
:1014B0005FEA0A7004D528680761284600F00CFA34
:1014C000F00606D528680069800702D0284600F09B
:1014D00004FAB00308D55FEAC96005D52968102071
:1014E0004860284600F0FAF9F00307D55FEA097072
:1014F00004D528684760284600F024FA300446D511
:101500005FEA497040D5F00504D55FEAC87001D0A4
:1015100044F00104B00504D55FEA887001D544F0B9
:101520000204700504D55FEA487001D544F0040454
:10153000300529D518F0700F26D008F0700040282B
:1015400015D006DC102809D020280AD0302816D162
:101550000AE050280ED0602811D10EE044F00804B3
:101560000DE044F010040AE044F0200407E044F0E9
:10157000400404E044F0800401E044F480742868EE
:10158000816921F070018161296804204860002C84
:1015900005D0686A204368622846FFF78FFEBDE8E1
:1015A000F09F70B5040003D094F8200010B104E05F
:1015B000012070BD204600F081F82068016841F0EC
:1015C0000101016000F064FC0546052604E000F01E
:1015D0005FFC401B0A2811D820684068C007F6D07D
:1015E0002068016821F00201016000F051FC05460D
:1015F0000BE000F04DFC401B0A2806D9606A40F45D
:101600000030606284F82060D2E72068406880077C
:10161000EFD4207E0128206801683DD021F08001B0
:101620000160607E01282068016838D021F0400107
:101630000160A07E01282068016833D021F02001DC
:101640000160E07E0128206801682ED041F0100181
:101650000160207F01282068016829D021F008015D
:101660000160607F01282068016824D021F0040116
:101670000160D4E902010843D4E90412114308438C
:101680006168491E08432168C8610020606201202A
:1016900084F82000002070BD41F08001C0E741F0D7
:1016A0004001C5E741F02001CAE721F01001CFE772
:1016B00041F00801D4E741F00401D9E7F0B587B063
:1016C000044614216846FEF7D9FF424B4248DFF832
:1016D00000E11968D4F800C03F4A03250226092713
:1016E00010300024491CF44532D11960012907D17A
:1016F000016841F000710160006800F00070059021
:10170000106840F0080010601068CDE9005600F045
:101710000800CDE9047069463048CDE9024500F083
:10172000B9FA00220521132000F050FC132000F02C
:101730003FFC00220521142000F048FC142000F09A
:1017400037FC00220521152000F040FC15203AE06E
:10175000DFF88CE0F44538D1D0F800C04CF0806C54
:10176000C0F800C0D0F800C001290CF0806CCDF8A2
:1017700014C0196007D1016841F000710160006870
:1017800000F000700590106840F0020010601068D2
:1017900002AB00F0020005906020CDE9000683E86E
:1017A000B00069460F4800F075FA0022052140207C
:1017B00000F00CFC402000F0FBFB00220521412042
:1017C00000F004FC412000F0F3FB07B0F0BD000086
:1017D000006400402000002030380240000C02402D
:1017E00000680040000402407047000000B5006837
:1017F00033498FB0884241D1324B6A46002132488A
:10180000FFF75DFD009A2F493048A2F50072013ABA
:1018100013D0012A23D0042A1FD10A38028802815A
:101820000A8852BA02804A8852BA42808A8852BADA
:1018300082808979817102200DE0028802810A8804
:1018400052BA02804A8852BA42808A8852BA82804A
:1018500089798171032006F0EFF90FB000BD42894C
:1018600042820A8852BA42814A8852BA82818A8860
:1018700052BAC281897901740420ECE71449884284
:10188000EBD1104B07AADB1F00211248FFF717FD11
:101890000798A0F500700938DFD10C48143801888A
:1018A00001810849C91F0A8852BA02804A8852BA7F
:1018B00042808A8852BA8280897981710120CAE780
:1018C0000068004001020020DC040020F66F0020C8
:1018D00000640040B4040020704770477047000067
:1018E00070B5044690F82000012804D0606A40F4E6
:1018F0000020606218E0022084F82000206801685F
:1019000021F00101016000F0C3FA05460EE000BFBE
:1019100000F0BEFA401B0A2808D9606A40F4003083
:101920006062052084F82000012070BD20684068B6
:10193000C007EDD1606270BD704770477047704757
:101940007047704770472DE9F0410446876D00F0FD
:101950009FFA064694F835000025022806D080201C
:10196000606584F834500120BDE8F081206801688A
:1019700021F0160101602068416921F08001416178
:10198000206C08B9A06C20B12068016821F0080122
:1019900001602068016821F0010101600CE000F0A5
:1019A00077FA801B052807D920206065032084F87A
:1019B000350084F83450D7E720680068C007EED1BE
:1019C00094F85C103F208840B860012084F835000E
:1019D00084F834500020C7E790F83510022903D06E
:1019E0008021416501207047052180F8351000688D
:1019F000016821F001010160002070472DE9F843E2
:101A000004464FF00009CDF8009063484FF416519A
:101A1000A56D0068B0FBF1F72E6894F85C10082003
:101A200000FA01F131420FD021680A6852070BD544
:101A30000A6822F004020A6094F85C108840A860EA
:101A4000606D40F00100606594F85C104FF0010893
:101A500008FA01F0304208D021684969090604D526
:101A6000A860606D40F00200606594F85C1004208E
:101A70008840304208D021680968890704D5A860E9
:101A8000606D40F00400606594F85C1010208840A0
:101A9000304218D021680968090714D5A860206869
:101AA0000168490304D50068000308D5A16C07E06C
:101AB0000168C90503D4016821F008010160216CA7
:101AC00009B12046884794F85C10202088403042B5
:101AD00031D021680968C9062DD5A86094F8350071
:101AE00005282068016806D0490347D5006800032F
:101AF0001DD4616C1CE021F0160101602068416971
:101B000021F080014161206C08B9A06C20B12068EF
:101B1000016821F00801016094F85C103F208840C2
:101B2000A86084F8358084F83490216D1FE0E16B63
:101B300009B120468847606D00282BD0606DC00732
:101B400014D0052084F835002068016821F00101D7
:101B500001600098401C0090B84203D820680068DB
:101B6000C007F6D184F8358084F83490E16C002900
:101B700010D001B02046BDE8F04308470168C90510
:101B8000D5D4016821F01001016084F8358084F813
:101B90003490CCE7BDE8F883940000202DE9F041B3
:101BA000044600F075F906465CB1022084F8350061
:101BB000002584F834502068016821F0010101609B
:101BC0000DE00120BDE8F08100F062F9801B0528DE
:101BD00005D920206065032084F83500F2E72068ED
:101BE0000068C007F0D12268116820480140D4E99C
:101BF00001031843D4E90336334318436369184398
:101C0000A3691843E3691843236A18430843616AC8
:101C1000042903D1D4E90B13194308431060206849
:101C20004069666A20F0070130460E430127042808
:101C30000CD1A06A0643E06A40B12046FFF750F994
:101C400020B14020606584F83570BAE720684661AD
:101C50002046FFF731F994F85C203F2191408160E4
:101C6000656584F835700020ACE700003F8010F017
:101C700070B5044600F00CF90546601C02D004481B
:101C80000078044400F004F9401BA042FAD370BD70
:101C9000880000202DE9F84FDFF8BCA100220125C3
:101CA00003264FF00F090AF1040BAAF1040E00BF3E
:101CB0000B6805FA02F42340A34270D10F7907F0B4
:101CC0000307012F01D0022F16D187684FEA42087F
:101CD00006FA08FC27EA0C07D1F80CC00CFA08FC3D
:101CE0004CEA070CC0F808C04768A7430C79C4F356
:101CF000001494403C4344600C79E443A4070AD0A8
:101D0000C4684FEA420C06FA0CF7BC438F6807FA26
:101D10000CF72743C7600C7904F00304022C12D19E
:101D2000D40800EB840CDCF820405707FF0E09FABA
:101D300007F824EA0804D1F8108008FA07F848EAFE
:101D40000408CCF8208004684FEA420C06FA0CF72D
:101D5000BC430F7907F0030707FA0CF72743076026
:101D60004C6814F4403F70D03C4C276847F48047DF
:101D70002760246822F0030704F480440094384C60
:101D800007EB040CDCF8084897074FEA177809FAC4
:101D900008F7BC43334FB84202D1002724E054E097
:101DA000314FB84201D101271EE0304FB84201D176
:101DB000022719E02E4FB84201D1032714E02D4F1E
:101DC000B84201D104270FE02B4FB84201D10527BB
:101DD0000AE02A4FB84201D1062705E0284FB84251
:101DE00001D1072700E0082707FA08F72743CCF8B6
:101DF0000878DAF800405746D1F804C09C435FEAFF
:101E0000CC2C00D51C433C60DBF800405F46D1F889
:101E100004C09C435FEA8C2C00D51C433C60DEF878
:101E200000407746D1F804C09C435FEA8C3C00D563
:101E30001C433C60084F083F3C68D1F804C09C43F9
:101E40005FEACC3C00D51C433C60521C102AFFF4D6
:101E50002FAFBDE8F88F0000083C01404438024035
:101E6000003001400000024000040240000802402F
:101E7000000C024000100240001402400018024012
:101E8000001C02400AB1816170470904FBE70000B1
:101E9000014880687047000088000020024881687F
:101EA0000278114481607047880000200B4810B50B
:101EB000016841F400710160016841F480610160D2
:101EC000016841F480710160032000F09FF80F2049
:101ED00000F006F800F050F8002010BD003C024071
:101EE00030B505461F4887B00024016841F008015D
:101EF0000160006806A900F00800009001A800F049
:101F00006BFE0498A8B100F08DFE40001649174AF8
:101F1000B0FBF1F11648491E026040F2E732C0E919
:101F20000324C0E90114846101F09CFA040003D089
:101F300015E000F077FEE9E70D4801F011FB040021
:101F40000DD1322000F034F8102D07D2002229469E
:101F5000322000F03BF80748056000E0012407B09C
:101F6000204630BD4038024040420F00000C004087
:101F7000500800208C0000200C4882B0016841F419
:101F800080410160006800F4804000900748001F15
:101F9000016841F0805101600068002200F080502B
:101FA00000900F21901E02B000F010B8443802409B
:101FB000002809DB00F01F02012191404009800048
:101FC00000F1E020C0F8001170470000F0B40E4BA3
:101FD0001B680C46C3F30223C3F10705042D00D987
:101FE0000425191D072901D2002300E0DB1E01266C
:101FF00006FA05F1491E214099409E40761E164082
:102000003143F0BC05F09DBA0CED00E0064900F04C
:10201000070208684FF6FF03184040EA0220034A0F
:1020200010430860704700000CED00E00000FA0566
:1020300070470068416200207047F0B50368586A35
:1020400039B19C6A4FF4827600EB144400204D1E97
:102050000AE040EA024098620FE006EB8007DF5991
:10206000401C04EB1744C0B2A842F6D344EA024035
:102070004FF4807202EB810158500020F0BDD0F87F
:10208000080504F025B901EBC10200EB8202D0F88B
:102090000805D26C04F07AB801EBC10200EB8202B1
:1020A000D0F80805D2F88C2204F0CBB8D0F8080597
:1020B00004F010B90A0601F00F0101EBC10100EBB9
:1020C000810101D53C3101E001F51F71006805F087
:1020D00045B870B504460B0601F00F0000EBC001D7
:1020E00004EB81014FF001024FF0000503D581F8A8
:1020F0003D203C3103E081F87D5201F51F710870ED
:1021000094F8BC04012808D084F8BC24206804F0AA
:10211000DFFC84F8BC54002070BD022070BD70B597
:10212000044601F00F006268904201D9012070BDA1
:102130000B0601F00F0101EBC10104EB81014FF02F
:1021400001024FF0000503D581F83D203C3103E04A
:1021500081F87D5201F51F718D70087094F8BC04F0
:10216000012808D084F8BC24206804F0ADFE84F86F
:10217000BC54002070BD022070BD01F00F0101EBC6
:10218000C10100EB8100D0F89C0270472DE9F041BD
:1021900004460F0601F00F0000EBC00104EB8101C3
:1021A0004FF001064FF0000503D581F83D603C314A
:1021B00003E081F87D5201F51F710870CA600B7150
:1021C0004A7802B10881022B00D14D7194F8BC0409
:1021D000012809D084F8BC64206804F0D1FB2846AB
:1021E00084F8BC54BDE8F0810220FBE770B50C46D2
:1021F00001F00F0505EBC50100EB8101C1F8943238
:10220000C1F88C220023C1F89C3281F87D3281F81C
:102210007C52036901F51F71012B00D14A6122072D
:10222000027C006803D004F0A7FE002070BD04F01B
:1022300091FDFAE770B504460D4601F00F006168A4
:10224000884201D9012070BD29064FF000064FF0E9
:10225000010207D500EBC00104EB810181F83D20AC
:102260003C3107E005EBC50104EB810181F87D629B
:1022700001F51F718A70087094F8BC04012807D01A
:1022800084F8BC24206804F04BFE280702D007E045
:10229000022070BD217C04F2C442206804F0E8FDF5
:1022A00084F8BC64002070BD70B50C4601F00F05C9
:1022B00005EBC50100EB81014B65CA640023CB65CA
:1022C000012381F83D3001F83C5F0369012B00D107
:1022D0004A612207027C006803D004F04DFE002012
:1022E00070BD04F037FDFAE72DE9FC5F0568044690
:1022F000284604F0D4FF00287DD1206804F0FBFFBD
:10230000002878D0D5F80808C0F30D20C4F8FC04E4
:10231000206804F0F0FF800704D52068416901F0CF
:1023200002014161206804F0E6FFC10604F2C440E6
:10233000009034D52068816921F0100181612F6AF5
:1023400007F00F0000EBC00004EB8006C7F343402A
:1023500006F51F76022802D0062811D01AE047F6AB
:10236000F070074216D0C7F30A12174628463169A3
:1023700004F0C5FF306938443061306A384408E001
:1023800008222846009904F0BAFF306AC7F30A1100
:10239000084430622068816941F010018161206841
:1023A00004F0A9FF00034FF0080B4FF0000A4FF0B4
:1023B00001097CD50026206804F07CFF074674E004
:1023C000F80770D0F1B2206804F08DFF8046C00796
:1023D00007D005EB4611C1F8089B3146204602F0B4
:1023E000E7FB5FEA087024D505EB4611C1F808BB8E
:1023F0002068016C00E025E200EB46100191D0F866
:10240000082BFC4B994205D9110403D54FF4004128
:10241000C0F8081B204600F005FBF64901988842E9
:1024200007D92069012804D120680121009A04F00D
:102430001FFD5FEAC86004D505EB46111020C1F806
:10244000080B5FEA88701DD56869000605D5D5F8C8
:10245000040840F48061C5F8041806EBC60004EBDC
:10246000800090F87F1200F51F70012905D180F8D7
:1024700003A0F1B2204600F0EBF905EB4611022073
:10248000C1F8080B5FEA886004D505EB46102021EF
:10249000C0F8081B5FEA884005D505EB46104FF4ED
:1024A0000051C0F8081B7F08761C002F88D12068D7
:1024B00004F021FF40036FD5206804F0F4FE0746C6
:1024C000002667E0F80763D0F1B2206804F0F9FE57
:1024D0008046C00723D006F00F0209FA02F0D5F8B3
:1024E00034288243C5F8342805EB4610C0F8089913
:1024F000206901280FD106EBC60004EB8000D0E96B
:1025000012211144C16436B9606D20B920680121DF
:10251000009A04F0ADFCF1B22046FFF7B4FD5FEA8B
:10252000087003D505EB4611C1F808B95FEAC86029
:1025300004D505EB46111020C1F808095FEA486090
:1025400004D505EB46104021C0F808195FEA8870F1
:1025500017D53146284604F075FE06EBC60004EB9D
:10256000800090F83F103C30012905D180F803A08D
:10257000F1B2204600F068F905EB46110220C1F8DF
:1025800008095FEA086003D53146204602F076FB71
:102590007F08761C002F95D1206804F0ACFE00283F
:1025A00011DAD5F8040820F00101C5F8041894F8F0
:1025B000F40401282BD0204600F018FA2068416965
:1025C00001F000414161206804F095FE00050BD543
:1025D000D5F80808C00702D0204600F04BFA206862
:1025E000416901F400614161206804F084FEC00487
:1025F00066D5D5F8040820F00100C5F804081021BC
:10260000206804F01FFE00214FF67F321FE084F89F
:10261000F4A400212046FFF70BFDCFE705EB4110A6
:10262000C0F80829D0F8003923F40013C0F80039A5
:10263000C0F8082BD0F8003B23F40013C0F8003B8F
:10264000D0F8003B43F00063C0F8003B491C6068D1
:102650008842E3D8D5F81C0840F00111C5F81C18D1
:10266000206B002828460DD0D0F8840840F00B01DC
:10267000C5F88418D5F8440840F00B012846C5F881
:1026800044180DE0D0F8140842F22B010843C5F8B5
:102690001408D5F8100840F00B012846C5F81018AA
:1026A000D0F8000820F4FE61C5F80018217C2068ED
:1026B000009A04F0DDFB2068416901F4805141611A
:1026C000206804F018FE800415D5206804F098F9FD
:1026D000206804F0D7FDE06000F09EFA0146227BFE
:1026E000206804F06BFE204600F06AF9206841691A
:1026F00001F400514161206804F0FDFD000707D599
:10270000204600F077F92068416901F00801416135
:10271000206804F0F0FD000616D5A86920F08000BE
:10272000A86101260DE000BF06EBC60004EB8000A7
:1027300090F87F02012803D1F1B22046FFF7BAFCDE
:10274000761C6068B042EFD8206804F0D4FDC00267
:1027500021D501264F4616E005EB4610D0F80019AA
:1027600006EBC60004EB800090F84020012A09D156
:10277000002907DA80F83F70F0B240F0800120466F
:10278000FFF798FC761C6068B042E5D82068416984
:1027900001F480114161206804F0ADFD800234D560
:1027A00001204B4629E000BF05EB4011D1F8001B8A
:1027B00000EBC00204EB820696F88022012A1BD1AE
:1027C000002919DA94F8FC2401F4803102F00102A6
:1027D000914211D186F87F32A96941F08002AA6145
:1027E0006969090608D4D5F8040840F40070C5F8F2
:1027F000040805E00A30544F401C61688142D3D878
:102800002068416901F400114161206804F073FD02
:10281000400007D52046FFF732FC2068416901F0EF
:1028200080414161206804F066FD40070AD52068B8
:102830004568680702D52046FFF738FC20684168E4
:1028400029434160BDE8FC9FD0F8080503F096BD20
:10285000D0F8080503F0A6BD2DE9F0418AB00400C8
:1028600005D094F8BD042668002520B108E00120B9
:102870000AB0BDE8F08184F8BC54204600F05EF850
:10288000032084F8BD04F06BC00500D425612068E6
:1028900004F05AFA04F11001282288466846FDF730
:1028A000BBFE94E80F0004F0B9F80226C8BB002173
:1028B000206804F043FD002001270EE000EBC0017A
:1028C00004EB810181F83D7001F83C0F08810D7126
:1028D000CD600D61401CC0B28D6161688142EDD850
:1028E000002011E000EBC00104EB810181F87D5272
:1028F00081F87C0281F88052C1F88852C1F88C526C
:10290000401CC0B2C1F8945261688142EAD82822C2
:1029100041466846FDF780FE94E80F0004F05AF93E
:1029200010B184F8BD64A2E784F8385084F8BD740F
:10293000206804F041F900209AE7000010B586B045
:10294000044614216846FDF799FE2068B0F1A04FB7
:102950002FD119480021026842F00102026000688C
:1029600000F0010005904FF4C05000900220CDE926
:102970000101032003900A20049069460F48FFF7E5
:1029800089F90D48001D016841F0800101600A4885
:102990001430016841F4804101600068002200F4B5
:1029A0008040059005214320FFF710FB4320FFF7EF
:1029B000FFFA06B010BD00003038024000000240AF
:1029C00070B50446C068012570B1022801D0FEF739
:1029D000B2FA2946D4F8080503F052FDD4F80805E8
:1029E000BDE8704003F007BD0025F2E7D0F8080508
:1029F00003F02FBDD0F8080503F035BD10B504462F
:102A000090F8BC0401280BD0012084F8BC0484F8A1
:102A10003810206804F0C0FC002084F8BC0410BD0D
:102A2000022010BDD0F8082500F2C441104603F082
:102A300033BD10B50446006894F8BC14012906D0D3
:102A4000012184F8BC14A16A012902D008E0022007
:102A500010BDA169012903D0816B41F480318163EC
:102A6000206804F0CAFB206804F098F8002084F87D
:102A7000BC0410BD10B50446D0F8080503F04EFDA7
:102A80002068D0F8001E41F00101C0F8001E206A45
:102A9000002804D00248016841F00601016010BD21
:102AA00010ED00E02DE9F0470E46050065D0DFF897
:102AB0001481D8F80000F7B200F00700B04207D246
:102AC00088F80070D8F8000000F00700B04254D138
:102AD00028683D4C810712D5400703D5206840F493
:102AE000E05020602878000703D5206840F460405B
:102AF00020602068A96820F0F00008432060287852
:102B0000C0072DD0304968680839012812D0022842
:102B100013D0032811D00968890700292DDA21680C
:102B200021F0030101432160FFF7B2F9814641F230
:102B3000883A0EE009688903EFE709688901ECE744
:102B4000FFF7A6F9A0EB0901514502D90320BDE822
:102B5000F0872068696800F00C00B0EB810FEFD1BE
:102B6000D8F80010404601F00701B14207D90770BC
:102B7000006800F00700B04201D00120E7E72878A4
:102B8000400705D52068E96820F4E050084320603C
:102B90002878000706D52068296920F4604040EABB
:102BA000C100206000F05EF82168084AC1F30311FB
:102BB000515CC8400649086006480068FFF790F974
:102BC0000020C4E7003C02400838024098A70008F3
:102BD000940000208C0000200F2202600C4A136831
:102BE00003F003034360136803F0F003836013688A
:102BF00003F4E053C36012684FF4E05303EAD202D7
:102C000002610448006800F0070008607047000097
:102C100008380240003C024001480068704700004C
:102C2000940000200448054900680968044AC1F37B
:102C30008221515CC840704794000020083802404F
:102C4000A8A700080448054900680968044AC1F3B8
:102C50004231515CC840704794000020083802405F
:102C6000A8A70008154810B5006810F00C02144819
:102C700013D01449042A0FD0082A0ED10F4C241F58
:102C80002268236802F03F025B0207D52068C0F388
:102C90008810A0FB010106E0084610BD2168C1F3C1
:102CA0008811A1FB00010023FDF7B8FB2168C1F3E7
:102CB0000141491C4900B0FBF1F010BD0838024049
:102CC0000024F400001BB7002DE9F84F04006ED07B
:102CD0002078DFF84C93C007A9F104054AD009F128
:102CE00004000168C1F38101012908D00068C0F324
:102CF000810002280AD1D9F80000400206D52868D0
:102D0000800337D560680028E1D033E06068B0F513
:102D1000803F10D0B0F5A02F286810D020F480306C
:102D20002860286820F4802028606068A8B1FFF738
:102D3000AFF806460DE0286840F48030F4E740F430
:102D400080202860F7E700BFFFF7A2F8801B642807
:102D500073D828688003F7D50CE0FFF799F806468A
:102D600005E000BFFFF794F8801B6428F0D82868BE
:102D70008003F7D42078DFF8AC8280074FF0000A98
:102D80003ED5A748001D016811F00C0F08D000685F
:102D9000C0F3810002280BD1D9F80000400207D40B
:102DA0002868800716D5E068012800D112E033E1D9
:102DB000E068B8B10120C8F80000FFF769F80646DE
:102DC00005E000BFFFF764F8801B0228C0D8286820
:102DD0008007F7D52868216920F0F80040EAC10093
:102DE00028600DE0C8F800A0FFF752F8064604E09E
:102DF000FFF74EF8801B02281FD828688007F7D4F9
:102E00002078000722D5864F87486169703771B1F5
:102E100001210160FFF73CF8064604E0FFF738F8AF
:102E2000801B022809D838688007F7D50EE0C0F863
:102E300000A0FFF72DF8064605E082E0FFF728F82E
:102E4000801B02287DD838688007F7D42078400797
:102E500068D5DFF8CCB100270BF13C0BDBF80000A4
:102E6000C0000BD4DBF8001041F08051CBF800100B
:102E7000DBF80000012700F0805000906B4E3068B6
:102E8000C00510D4306840F480703060FFF700F85F
:102E9000009005E0FEF7FCFF0099401A022850D888
:102EA0003068C005F6D55E4EA0686C3601280FD09C
:102EB0000528306810D020F001003060306820F024
:102EC00004003060A068B8B1FEF7E2FF00900FE0A8
:102ED000306840F00100F4E740F004003060F7E7AC
:102EE000FEF7D6FF0099411A41F28830814266D838
:102EF00030688007F4D50EE0FEF7CAFF009007E0C7
:102F0000FEF7C6FF0099411A41F28830814256D837
:102F100030688007F4D42FB1DBF8001021F0805125
:102F2000CBF80010A069C8B33D49091D0968C1F379
:102F3000810102294AD00228504607D0C8F8600013
:102F400000E03CE0FEF7A4FF04463BE04746C8F83B
:102F50006000FEF79DFF064605E000BFFEF798FF04
:102F6000801B02282BD828688001F7D4D4E90701F8
:102F70000843A16A2E4A490802EB0141626A41EA0C
:102F80008211084394F82C1040EA0161C9F800103E
:102F900001203866FEF77CFF044606E03EE000BFF5
:102FA000FEF776FF001B022809D828688001F7D5B4
:102FB00034E000BFFEF76CFF001B022802D903209B
:102FC000BDE8F88F28688001F4D427E00128F7D005
:102FD000D9F80000E26900F4800191421CD1226A14
:102FE00000F03F01914217D147F6C071626A01407B
:102FF000B1EB821F10D1A26A4FF0FF3300F44031D1
:1030000003EB5202B1EB024F06D194F82C1000F002
:103010007060B0EB016F01D00120D1E70020CFE755
:103020000438024000004742800E474200700040D2
:103030000000FFFF70B5040009D0606A002540B1B0
:1030400025616561A56294F8510040B10CE0012052
:1030500070BD6068B0F5827FF4D0E561F2E784F876
:103060005050204600F044F8022084F851002068B7
:10307000016821F040010160A088218900F482707C
:1030800001F404410843A18901F400610843217C53
:1030900001F002010843217D01F001010843218B69
:1030A00001F400710843217F01F03801084394F8CE
:1030B000201001F080010843218D01F400510843E4
:1030C00021680860A069042101EA104094F82410E6
:1030D00001F010010843216848602068C16921F4AB
:1030E0000061C1616565012084F85100002070BD58
:1030F0002DE9F04186B0064614216846FDF7BEFA78
:1031000034493068884262D133480024016841F470
:1031100080510160006800F4805005902E481438FA
:10312000016841F002010160016801F002010591AE
:10313000016841F0010101600068022500F0010012
:1031400005901820CDE9000502AA03274FF00508D5
:1031500082E8900169462148FEF79CFD8020CDE978
:10316000000502AA694682E890011D48FEF792FD1B
:103170001D4D1C487F062860C5E901744FF4806826
:10318000C5E903486C61AC61EC612C6228466C6255
:10319000FEF704FD08B1FDF7CEFEF564AE63124DF7
:1031A000104860351830E5E802074020A5E8110115
:1031B0000D4845F814496030AC61EC612C626C62DA
:1031C000FEF7ECFC08B1FDF7B6FEB564AE6306B0E1
:1031D000BDE8F08100300140443802400004024064
:1031E00000000240406402405C0500202DE9F84FD9
:1031F000044690F8500000270A9E1D4692468B46D2
:103200004FF0010901280ED0012084F85000FEF78C
:103210003FFE804694F85100616801280CD0B1F55A
:10322000827F07D102E00220BDE8F88FA16809B9CA
:10323000042801D00227C2E0BBF1000F27D0BAF169
:10324000000F24D01DB394F85100042802D00520AB
:1032500084F8510000206065C4F838A0E587A58790
:10326000C4F830B0E586A5862064606420680168F3
:10327000490603D4016841F040010160E068B0F5FF
:10328000006F606805D0E8B3012D46D07FE00127CC
:1032900095E008B1012D39D1206B21680088C86004
:1032A000206B801C2063E08E401EE0862EE02068AC
:1032B000816889070FD5E18E69B1B9F1010F0AD193
:1032C000216B0988C160206B801C2063E08E401E4A
:1032D000E0864FF0000920688168C9070CD0E18FB3
:1032E00051B1C068A16B0880A06B801CA063E08F07
:1032F000401EE0874FF00109FEF7CAFDA0EB080071
:10330000B04200E009E001D3701C50D1E08E0028EB
:10331000CDD1E08F0028CAD13FE0206B2168007832
:103320000873206B401C2063E08E401EE0862EE078
:103330002068816889070FD5E18E69B1B9F1010F65
:103340000AD1216B09780173206B401C2063E08E49
:10335000401EE0864FF0000920688168C9070CD044
:10336000E18F51B1C068A16B0870A06B401CA063D5
:10337000E08F401EE0874FF00109FEF789FDA0EBCA
:103380000800B04202D3701C01D010E07EB1E08E84
:103390000028CDD1E08F0028CAD1424631462046D0
:1033A00001F052FE28B101272020606507E00327C5
:1033B00005E0A06818B92068C16880680090012005
:1033C00084F85100002084F8500038462CE77047FC
:1033D0007047000070B590F83C20012A32D00124DB
:1033E00080F83C40022280F83D2003685A689D68BE
:1033F00022F070060A6832435A60134B02689A4200
:1034000014D0B2F1804F11D0104B9A420ED0104B15
:103410009A420BD00F4B9A4208D00F4B9A4205D0DC
:103420000E4B9A4202D00E4B9A4204D1496825F0C5
:1034300080031943916080F83D40002180F83C10E2
:10344000084670BD022070BD00000140000400402D
:1034500000080040000C0040000401400040014012
:103460000018004010B5040003D094F83D0010B1DE
:1034700007E0012010BD002084F83C00204600F049
:103480001FF8022084F83D00211D206801F0D8FEBD
:10349000012084F8460084F83E0084F83F0084F858
:1034A000400084F8410084F8420084F8430084F826
:1034B000440084F8450084F83D00002010BD000061
:1034C00008B500680649884208D10648016841F0FD
:1034D00004010160006800F00400009008BD0000D5
:1034E000000800404038024090F83D10012901D00A
:1034F00001207047022180F83D1000681149884280
:1035000014D0B0F1804F11D00F4988420ED00F492E
:1035100088420BD00E49884208D00E49884205D017
:103520000D49884202D00D49884204D1816801F0DA
:103530000701062903D0016841F001010160002064
:1035400070470000000001400004004000080040F7
:10355000000C004000040140004001400018004001
:1035600090F83D10012901D001207047022180F818
:103570003D100168CA6842F00102CA600068114942
:10358000884214D0B0F1804F11D00F4988420ED03C
:103590000E4988420BD00E49884208D00D49884216
:1035A00005D00D49884202D00C49884204D1816877
:1035B00001F00701062903D0016841F00101016013
:1035C0000020704700000140000400400008004057
:1035D000000C004000040140004001400018004081
:1035E00070B5044690F83C000025012817D001264C
:1035F00084F83C60022084F83D002068826822F054
:10360000770222F47F4282600868502838D00DDCAF
:1036100020284FD005DC90B3102811D14AE00220B9
:1036200070BD302846D040280AD13BE060282FD01A
:1036300070280DD0B0F5805F03D0B0F5005F12D0D8
:10364000012584F83D60002084F83C00284670BDC8
:10365000CB68D1E90121206801F063FE2068816810
:1036600041F0770109E0CB68D1E90121206801F040
:1036700058FE2068816841F480418160E1E719E0EB
:10368000CA684968206801F021FF5021206806E0DF
:10369000CA684968206801F02AFF6021206801F0AB
:1036A0004AFECEE7CA684968206801F00FFF402152
:1036B0002068F4E7226801461046F0E7704770B5CD
:1036C0000446006801694FF00005C943890715D415
:1036D000C168C943890711D4E91E0161012020771F
:1036E000206880698007204602D0FFF7E7FF04E0EA
:1036F00000F0C2F8204600F054F9257720680169EF
:10370000C943490717D4C168C943490713D46FF0A7
:1037100004010161022020772068806910F4407F55
:10372000204602D0FFF7CAFF04E000F0A5F82046CB
:1037300000F037F9257720680169C943090716D4D5
:10374000C168C943090712D46FF008010161042060
:1037500020772068C0698007204602D0FFF7AEFFBF
:1037600004E000F089F8204600F01BF92577206876
:103770000169C943C90617D4C168C943C90613D42E
:103780006FF010010161082020772068C06910F4F3
:10379000407F204602D0FFF791FF04E000F06CF874
:1037A000204600F0FEF8257720680169C943C90763
:1037B00008D1C168C943C90704D1891E01612046E7
:1037C00000F054F920680169C943090609D4C168A9
:1037D000C943090605D46FF0800101612046FFF757
:1037E000F6FD20680169C943490609D4C168C94387
:1037F000490605D46FF040010161204600F040F910
:1038000020680169C94389060BD4C168C943890688
:1038100007D46FF0200101612046BDE87040FFF73A
:10382000D7BD70BD10B586B0044614216846FCF7BC
:1038300025FF0E492068884215D10D4800210268F5
:1038400042F008020260006800F0080005904FF4A2
:10385000804000900220CDE90101CDE903106946C6
:103860000448FEF717FA06B010BD0000000800403B
:1038700030380240000C0240704770B5044690F8A2
:103880003C0000260D4601280FD0012084F83C00A2
:103890006AB1042A1DD0082A2FD00C2A3FD0012655
:1038A000002084F83C00304670BD022070BD2068C6
:1038B00001F04AFD2068816941F0080181612068BA
:1038C000816921F004018161206881692A691143BD
:1038D00011E0206801F068FD2068816941F4006111
:1038E00081612068816921F480618161206881693A
:1038F0002A6941EA02218161D2E7206801F08AFD4C
:103900002068C16941F00801C1612068C16921F0E6
:103910000401C1612068C1692A69114311E020686E
:1039200001F0ACFD2068C16941F40061C16120680B
:10393000C16921F48061C1612068C1692A6941EAD5
:103940000221C161ACE710B5040003D094F83D003A
:1039500010B107E0012010BD002084F83C00204693
:1039600000F01EF8022084F83D00211D206801F0BF
:1039700067FC012084F8460084F83E0084F83F008C
:1039800084F8400084F8410084F8420084F8430041
:1039900084F8440084F8450084F83D00002010BD00
:1039A0007047704710B50446022249B104290ED071
:1039B000082913D094F84100012816D0012010BD29
:1039C00094F83E000128F9D184F83E200FE094F8E5
:1039D0003F000128F2D184F83F2008E094F840002D
:1039E0000128EBD184F8402001E084F84120012235
:1039F000206801F089FC16492068164A884201D0E7
:103A0000904203D1436C43F40043436420688842EE
:103A100013D0B0F1804F10D00F4988420DD00F491C
:103A200088420AD00E49884207D0904205D00D49FD
:103A3000884202D00C49884204D1816801F0070114
:103A4000062903D0016841F001010160002010BD8A
:103A50000000014000040140000400400008004054
:103A6000000C00400040014000180040006803497D
:103A7000884201D1FEF712BA70470000000C0040E6
:103A80007047704770470000F8B501680446086841
:103A9000CA684B6910F00F0F4FF0000559D003F0C2
:103AA000010602F49077374365D0C10705D0D105F0
:103AB00003D5216C41F001012164410705D5D907E7
:103AC00003D0216C41F002012164810705D5D9079B
:103AD00003D0216C41F004012164010707D502F0F5
:103AE0002001314303D0216C41F008012164216C95
:103AF00000293AD0800604D5900602D5204601F070
:103B000037FD20684069216CC0F38010090700D49C
:103B100060B3204601F005FD20684069400621D5CC
:103B20002068143050E8001F21F0400140E80012E6
:103B3000002AF5D1A06BA8B16C490165A06BFDF717
:103B40004BFF002811D0A06B016D01B0BDE8F04023
:103B5000084783060FD593060DD52046BDE8F840EB
:103B600001F006BD2046FFF78DFFF8BD2046FFF7A8
:103B700089FF2564F8BD266B2023012E79D1C60666
:103B800077D5D60675D5086848680090486940061C
:103B900040D5A16B086840680004000CEAD0A28DF3
:103BA0008242E7D9E085C869B0F5807F2DD02068D2
:103BB0000C3050E8001F21F4807140E80012002A08
:103BC000F5D12068143050E8001F21F0010140E8D1
:103BD0000012002AF5D12068143050E8001F21F0AF
:103BE000400140E80012002AF5D184F83E302563F8
:103BF00020680C3050E8001F21F0100140E800124E
:103C0000002AF5D1A06BFDF79EFEA08DE18D401A34
:103C100081B229E0A08DE18D401A81B2E08D0028AB
:103C2000A8D00029A6D020680C3050E8002F22F43C
:103C3000907240E80026002EF5D12068143050E83C
:103C4000002F22F0010240E80026002EF5D184F872
:103C50003E30256320680C3050E8002F22F010021F
:103C600040E80023002BF5D12046FFF70AFFF8BDFE
:103C7000FFE705062BD5150629D594F83D00212828
:103C8000F5D1A068B0F5805F01D12069B0B1206A9C
:103C9000411C2162216800784860E08C401E0004CD
:103CA000000CE084E3D12068C16821F08001C1608C
:103CB0002068C16841F04001C160D8E7206A0088EF
:103CC000C0F308004860206A801C2062E5E74006D7
:103CD000CDD55006CBD5CA68204622F04002CA6036
:103CE00084F83D3000F085F9C1E700001355000865
:103CF00070B5040004D094F83D00002510B106E032
:103D0000012070BD84F83C50204600F023F82420A8
:103D100084F83D002068C16821F40051C16020464C
:103D200001F086FC2068016921F49041016120685E
:103D3000416921F02A0141612068C16841F40051C4
:103D4000C1602564202084F83D0084F83E000020F6
:103D500070BD00002DE9F04387B006461421684687
:103D6000FCF78CFC6B486A4B32686A4914380225B0
:103D700000244FF003084FF007099A4232D10A6835
:103D800042F010020A60096801F010010591016813
:103D900041F002010160016801F002010591016832
:103DA00041F001010160006802AA00F001000590E5
:103DB0008020CDE9000582E8100369465648FDF7EA
:103DC00069FF2802CDE9000502AA694682E81003CE
:103DD0005248FDF75FFF002205212520FEF7F6F887
:103DE00025203BE04E4B1F159A423CD14949091F03
:103DF0000A6842F480220A60096801F48021059172
:103E0000016841F004010160006802AA00F00400AA
:103E100005904FF44060CDE9000582E81003694643
:103E20004048FDF737FF414D3F4828607804C5E919
:103E30000104C5E903476C61AC61EC612C62284662
:103E40006C62FDF7ABFE08B1FDF775F8B5630022B3
:103E500005212720AE63FEF7B9F82720FEF7A8F862
:103E600007B0BDE8F083324B9A42F9D10A6842F0BC
:103E700020020A60096801F020010591016841F003
:103E8000400101600068029400F0400005904FF48A
:103E90008440CDE900050820CDE903806946254826
:103EA000FDF7F8FE214D244860354FF0206828606A
:103EB000C5E90184C5E903476C61AC61EC612C6222
:103EC00028466C62FDF76AFE08B1FDF734F8B56369
:103ED000AE63164D1848C0357830E5E8020840203A
:103EE00091C5124845F81449C030AC61EC612C62B0
:103EF0006C62FDF753FE08B1FDF71DF875630022F3
:103F000005214720AE63FEF761F84720A6E70000D1
:103F1000001001404438024000040240000002400A
:103F2000004800400008024028600240300700209E
:103F3000001401400018024028640240704700004D
:103F40002DE9F843044690F83D001F4616460D46FD
:103F500020284CD1C5B1BEB194F83C00012846D010
:103F6000012084F83C004FF00008C4F84080212074
:103F700084F83D00FDF78CFFA6848146E684A068A6
:103F8000B0F5805F03D004E00120BDE8F88320692C
:103F900028B12E465FF0000584F83C800EE0002634
:103FA000FAE78021204601F0C9FBA0B9AEB116F8AE
:103FB000010B21684860E08C401EE084E08C4B4699
:103FC0004FF0000200970028EBD14FF0400120464F
:103FD00001F0B4FB30B10320D7E735F8020BC0F392
:103FE0000800E6E7202084F83D000020CDE702200D
:103FF000CBE77047FEE700001CB502E0642004F048
:10400000DBFCFCF777FD0028F8D13E4A0192A2F1D3
:104010001004101D211D8346FCF778FD0026DFEDFE
:104020003A0A9FED3A0A3A4B0122314604F1300038
:10403000009600F06BFFA4F11000FCF705FD04F101
:10404000980004F0AFFB334D04F12C0A04F1280969
:1040500004F1240804F1A407211D5846019AFCF735
:1040600055FD28495846883104F0F4FB04F1140149
:10407000244891EC030A211D2038D1EC031A00F0EA
:104080009DFC204853464A464146203803F0BEFE78
:104090005FF0000004EB800191ED090A07EB80015D
:1040A000401CC0B281ED000A0328F3D300209FED2D
:1040B0001A0A00BF04EB8001401CD1ED090AC0B20E
:1040C000032860EE800AC1ED090AF3D3114894ED8C
:1040D0000A0A083080ED000AB1EE400A84ED0A0AAF
:1040E000287801280AD12E70A988688803F06AFD13
:1040F0004FF4FA7004F060FC03F05CFD012004F062
:104100005BFCA9E7806800200080894500A08C4501
:1041100054A80008C8010020E12E6542F0B5002334
:104120000A24302537261F4611E000BFB4EB107F6C
:1041300002D905EB107C01E006EB107C01F813C0FE
:1041400001EB430C00015B1C8CF80170DBB2934265
:10415000ECD3F0BD2DE9F04104462DED048BB0EE1B
:10416000608AF0EE409ADFEDB38AB0EE689A05F00F
:10417000C5FB0146B048016042680AB18A1A8260F4
:104180004160806850B1E16D00EE101A78EE400A8F
:1041900000EE100AB8EE400A80EE809A18EE100A7F
:1041A000B0EE690AE065D4F8520000EE900A04F01F
:1041B000FBFBB0EE401AB0EE480A04F0F5FBB4EE9B
:1041C000C01AF1EE10FA04D220EE880A10EE100A9E
:1041D00000E000202066A06D00EE100A20EE090A23
:1041E00010EE103A636614B1607830B122E0B0EEA0
:1041F000680ABDEC048BBDE8F081D4F842008F4919
:104200009FED8F0A884202DCD4F8420007E000EEFE
:10421000900A70EEC00A10EE900AC4F84200894974
:10422000884207D900EE900A30EE800A10EE100A9C
:10423000C4F8420078EE690AD4F84620C4F84A204F
:10424000B7EE000AD4F8421060EE200A00EE101A11
:1042500018EE100AC4F8461048EE800AC4F81E0092
:1042600019EE900AC4F8220010EE900AC4F8420039
:10427000257815B1012D6CD0CEE054F8022F00EE58
:10428000100A00EE902A20EE800A00EE900A10EE4E
:10429000105AA562E26A00EE102A626801EE102A46
:1042A00001EE200A00EE901A10EE102A00EE100A1D
:1042B000E262A66B30EE600AE663666B10EE100AEF
:1042C000A6636063A16800EE100A00EE901A20EE6B
:1042D000800A10EE101A00EE102A21636069A41EF5
:1042E00000EE900AB4EEE00AF1EE10FA03DD00BF32
:1042F000C4F82E0011E000EE900A00EE102AF1EE54
:10430000600AB4EEE00AF1EE10FA06D200EE100AEE
:10431000B1EE400A10EE100AEAE7D4F82E0000EEE3
:10432000105A00EE900A70EE200A00EE101A30EEDD
:10433000800A10EE101AC4F8261000EE101AD4F8F5
:10434000120054E000EE100AB1EE400A10EE100A1E
:1043500054E000EE100A00EE901A54F8025FB0EE3E
:10436000001A70EE600A00EE105A20EE800A10EE7D
:10437000105A00EE100AA562666800EE906A60EEC0
:10438000800A00EE100A10EE906A00EE901AE662C3
:10439000A76B00EEC10A00EE902AE763676BA76384
:1043A00030EE200A10EE100A6063A16800EE100AD9
:1043B00000EE901A20EE800A00EE906A10EE100ACD
:1043C00000EE105A206370EE200A00EE100A54F836
:1043D000240F70EE800A00EE100A30EE800A10EE14
:1043E000101A44F8141900EE101A54F8120900EECD
:1043F000900AB4EEE00AF1EE10FA02DDC4F82600ED
:104400000AE000EE900A00EE101AF1EE600AB4EE37
:10441000E00AF1EE10FA95D3D4F8260000EE103A37
:1044200000EE900A206E70EE800A00EE100A30EE68
:10443000800ADEE600000000340200200000344361
:104440000000B443000034C3002821D0002A1FD04C
:1044500000F8021B11680160516841609168816039
:1044600010EE101A016110EE901A41610021C16333
:104470008163416341620163C1628162816441641D
:10448000016411EE101A016511EE901AC0F8561071
:104490007047000070B50446A9B12C48B0F89204EA
:1044A0002B4914224D88488045408543214604F11C
:1044B0001400FCF72AF801200021402D06D0A1713C
:1044C000802D09D003E02348808AE9E7A071E171DB
:1044D000B5F5807F06D000E0E0712172B5F5007F70
:1044E00007D000E020721C4AB5F5806F517206D0EB
:1044F00000E06072A172B5F5006F06D000E0A07216
:10450000E172B5F5805F06D000E0E0722173B5F589
:10451000005F06D000E020736173B5F5804F06D0D0
:1045200000E06073A173B5F5004F05D000E0A07303
:10453000E173102D05D000E0E0732171202D03D030
:1045400000E02071617170BD607170BD4C6B002026
:10455000E6010020C46A0020246B00200F4810B53B
:104560000D4901600321416000214FF43022816038
:10457000C0E9031241610176417681760122C2765B
:1045800001774177FDF70DF8002803D0BDE8104012
:10459000FCF7D1BC10BD000000640040B404002052
:1045A0000E4810B50C4901600321416000214FF411
:1045B00030228160C0E90312416101764176817643
:1045C000C17601774177FCF7ECFF002803D0BDE806
:1045D0001040FCF7B0BC10BD00680040DC040020B7
:1045E0001D4808B5016841F480010160016801F4CB
:1045F00080010091016841F400110160006800220F
:1046000000F40010009005210C20FDF7DFFC0C20C9
:10461000FDF7CEFC002205213920FDF7D7FC39201B
:10462000FDF7C6FC002205213A20FDF7CFFC3A2019
:10463000FDF7BEFC002205213B20FDF7C7FC3B2017
:10464000FDF7B6FC002205214520FDF7BFFCBDE8C3
:1046500008404520FDF7ACBC3038024010B5B8B07A
:104660001C222C496846FBF7D7FF0021684604F05E
:10467000AFF9294C27491C2220601C3107A8FBF701
:10468000CBFF002107A804F0A3F9224960601C2297
:1046900038310EA8FBF7C0FF00210EA804F098F9EE
:1046A0001C49A0601C22543115A8FBF7B5FF00215E
:1046B00015A804F08DF91749E0601C2270311CA880
:1046C000FBF7AAFF00211CA804F082F91149206120
:1046D0001C228C3123A8FBF79FFF002123A804F0A4
:1046E00077F90C4960611C22A8312AA8FBF794FFD6
:1046F00000212AA804F06CF90649A0611C22C431EB
:1047000031A8FBF789FF002131A804F061F9E061CD
:1047100038B010BDB0A60008000000202DE9F0411F
:1047200086B014216846FBF7A9FF294800250168D7
:1047300041F002010160016801F002010591016888
:1047400041F040010160016801F0400105910168FC
:1047500041F001010160016801F00101059101686A
:1047600041F008010160016801F00801059101684C
:1047700041F004010160016801F004010591016844
:1047800041F0800101600068124F00F08000059048
:10479000002210213846FDF775FBDFF83C8000222F
:1047A00001214046FDF76EFB1020012402268DE812
:1047B000710069463846FDF76DFA01AA009482E857
:1047C000700069464046FDF765FA06B0BDE8F08125
:1047D000303802400000024000040240104810B58A
:1047E0000E4901604FF48271416000210222816014
:1047F000C0E9031201224261520282613822C0E9FB
:104800000721416281620A21C162FEF713FC002880
:1048100003D0BDE81040FCF78EBB10BD0030014056
:104820000405002010B58EB0002407940894099464
:104830000A940B941C2168460C94FBF71FFF1E483A
:104840001C49C0E9001445F20721C0E90241046196
:104850008461FEF707FE08B1FCF76DFB4FF4805052
:10486000079007A91448FEF7BBFE08B1FCF763FBED
:104870001148FFF768F808B1FCF75DFB0B940BA932
:104880000D480C94FEF7A6FD08B1FCF754FB602020
:10489000CDE9000402940822694607480494FEF713
:1048A000ECFF08B1FCF747FB0348FEF7BBFF0EB077
:1048B00010BD0000000800401C0600200C4810B588
:1048C0000A4901604FF4E1314160002181600C220E
:1048D000C160C0E904128161C161FFF709FA0028D3
:1048E00003D0BDE81040FCF726BB10BD001001400E
:1048F000640600200C4810B50A4901600B4941606C
:10490000002181600C22C160C0E904128161C16193
:10491000FFF7EEF9002803D0BDE81040FCF70BBB11
:1049200010BD000000480040A8060020A08601003D
:104930000C4810B50A4901604FF4E1314160002193
:1049400081600C22C160C0E904128161C161FFF77E
:10495000CFF9002803D0BDE81040FCF7ECBA10BD39
:1049600000140140EC06002010B500220F49104849
:1049700001F0E7FB08B1FCF7DEFA0E490C4801F044
:10498000F5FD08B1FCF7D7FA0B49094801F088F9A1
:1049900008B1FCF7D0FA064801F06CFE002803D0FD
:1049A000BDE81040FCF7C7BA10BD0000240000208D
:1049B000980800205801002074000020F5EEC01A6D
:1049C000B0EE413AF0EE603AB0EE404AF1EE10FA45
:1049D00000B5024609D1B5EEC02AF1EE10FA04D1B5
:1049E000F5EEC02AF1EE10FA78D021EEA10A02EE1F
:1049F000020A02EEA20A03F047FF21EE805A62EE9D
:104A0000004A92ED011AD2ED030A22EE800AD2ED9D
:104A1000002A21EE202AD2ED021A22EE811A5C48E9
:104A200002EEE12A01EEA01AF6EE001A52EEA21AE8
:104A300040EEA01A60EE020A64EEA12A45EE610A79
:104A400040EE412A25EE010A90ED011A04EEC20A59
:104A5000B5EEC01AF1EE10FA2CDD90ED011AD0ED92
:104A6000021A21EE222A9FED4B1A42EE011AC0EDE6
:104A7000021AD0ED011A21EEA02AD0ED031A42EE5F
:104A8000011AC0ED031AD0ED011A21EE802AD0EDF3
:104A9000041A42EE011AC0ED041A90ED021A34EE27
:104AA000014A90ED031A73EE813A90ED041A33EE49
:104AB000013A07E09FED381A80ED021A80ED031AE3
:104AC00080ED041A90ED001A01EE224A90ED001AD2
:104AD00041EE203AD0ED000A00EE803A9FED2F0A19
:104AE000D2ED021A24EE002A63EE802A23EE001A89
:104AF00092EC020A92ED033A60EEC23A41EEE23ADB
:104B000043EE413A73EE804A60EE023AC2ED004A4B
:104B100041EE813A43EE623A33EEA04A60EE223A29
:104B200020EE010A82ED014A40EEC13A00EEA20AEF
:104B300043EE023A01EEC20A73EEA13A70EE030AA6
:104B400024EEA40AC2ED023AC2ED030A04EE040AFE
:104B500003EEA30A00EEA00A03F096FED2ED000ACF
:104B600060EE800AC2ED000AD2ED010A60EE800A12
:104B7000C2ED010AD2ED020A60EE800AC2ED020A1D
:104B8000D2ED030A20EE800A82ED030A00BD000088
:104B90004C0200206F12833A000000006F12033AAB
:104BA000FEE7FEE70148FDF79FBB0000F81F00206D
:104BB0002DE9F04103680D4604461E6C03EB4511D8
:104BC000D1F8080BD4F810E04FF400474FF0200C58
:104BD00004F2C442BEF1010F09D0DFF898E0764537
:104BE00039D1020432D500BFC1F8087B3FE0224B27
:104BF0005FEA007E04D59E4239D90004F4D436E041
:104C00005FEA806E02D5C1F808CB30E010F0280FC3
:104C10002DD19E4201D90004E6D405EBC50004EB7A
:104C20008000D1F8101BD0F89832C1F31201591A44
:104C3000C0F89C1200F51F70ADB983691BB1026901
:104C4000114401610FE0012120680AE080060AD5C5
:104C5000C1F808CB07E035B9D4F8940218B900219F
:104C6000184602F005F9E9B22046FDF715FA0020D2
:104C7000BDE8F0810A31544F0A30544F2DE9F84F06
:104C80000E4601EBC60100EB810481460568616DAB
:104C9000E06D3C34884202D90120BDE8F88F081A43
:104CA000E168814200D20846C01C870805EB46181F
:104CB0001BE000BFA0EB010AE068504500D282462D
:104CC0000AF10300870899F8100000901FFA8AF390
:104CD000F2B22846216902F0E5FB216901EB0A00E6
:104CE0002061216A01EB0A002062D8F8180980B21D
:104CF000B84205D3216AA069814201D20028D9D1E6
:104D0000216AA069884208D806F00F010120884076
:104D1000D5F834188143C5F834180020BDE70000E9
:104D200010B59FED761A00B3D0F84610C0F84A10BF
:104D3000D0F8421010EE902AC0F84610C0F81E209D
:104D400010EE102A30EEC00AF7EE001AC0F822204A
:104D500061EE800A00EE101A41EE000A10EE901A81
:104D6000C0F8421042781AB11DE0B0EE410A10BD01
:104D7000634A9FED640A914202DCD0F8421007E0DA
:104D800000EE901A70EEC00A10EE901AC0F84210B1
:104D90005D4A914207D900EE901A30EE800A10EE7B
:104DA000101AC0F84210B0F85610C90516D5D0F840
:104DB00042100E3000EE101A03F0F6FD50F8341BCE
:104DC00000EE901A50F8281901EE101A60EE810AD0
:104DD00020EE200A10EE101A40F81A190178E1BBF3
:104DE00050F8021F00EE901A016C00EE101A20EE2F
:104DF000800A00EE901A10EE103A8362C26A00EE4A
:104E0000102A426801EE102A01EE200A10EE102A44
:104E100000EE101AC262846BC463446B8463416CFD
:104E200000EE901A30EE600A10EE101A41638468AA
:104E300000EE101A00EE904A20EE800A10EE104AA2
:104E400000EE102A04634169801E00EE901AB4EE51
:104E5000E00AF1EE10FA04DD00E04AE0C0F82E109E
:104E600011E000EE901A00EE102AF1EE600AB4EEA6
:104E7000E00AF1EE10FA06D200EE101AB1EE400A86
:104E800010EE101AE8E7D0F82E1000EE103A00EEFF
:104E9000901AD0F81A1070EE200A00EE104A70EE48
:104EA000800A00EE101A30EE800A10EE102AC0F8C8
:104EB0002620D0F8121000EE102A00EE901AB4EE60
:104EC000E00AF1EE10FA02DDC0F8261011E000EE63
:104ED000901A00EE102AF1EE600AB4EEE00AF1EE4C
:104EE00010FA06D200EE101AB1EE400A10EE101AB7
:104EF000EAE7D0F8260000EE100A10BD000000001E
:104F0000000034430000B443000034C3009A00287A
:104F100022D0002B20D000F8021B196801605968CC
:104F200041609968816010EE101AA0F85420016168
:104F300010EE901A41610021C163816341634162B7
:104F40000163C1628162816441640164801ED10594
:104F500002D5D968C0F80E107047000030B5144B68
:104F60001C68656945F0400565611B68DC6844F0B4
:104F70001004DC600F4B1C68256825F001052560D6
:104F80001C682568ED07F7D11D680B4CAC601C68E8
:104F9000E06018680161186842601868016841F4AF
:104FA000802101601868016841F00101016030BD95
:104FB000A8060020300700200448004070B5194DB5
:104FC000C5F88204B5F88004002829D0D5F88204F9
:104FD0000178A52924D1052102F079FA01281FD1F1
:104FE000D5F88244E11DB4F80500A0F54070013801
:104FF00002D0032807D102E0C5F8861403E00C2292
:105000000948FBF7C7FAB5F88004B4F80110401A54
:105010000938A5F88004B4F8010020440930CFE72E
:1050200070BD00004C6B0020D66F002008B58020BA
:10503000044B8200A3F500710090A1F5007003F00D
:105040001BFF08BD4C6F002038B504461248134BB7
:105050000068B0FBF3F04FF47A7358430090606837
:10506000B0F5827F0DD10B460092002280212046B0
:1050700000F016F870B1606D40F02000606503200C
:1050800038BD009830B1401E009020688068C04351
:105090000006F6D5002038BD9400002000366E01D1
:1050A0002DE9F8431E46914688460446089DFCF7C4
:1050B000EFFE401B351AFCF7EBFE0746254800685B
:1050C000C0F3CB30684338E0701C37D0FCF7E0FE0B
:1050D000C01BA84203D215B1009860B32CE0206831
:1050E000416821F0E00141606068B0F5827F0BD13A
:1050F000A068B0F5004F02D0B0F5806F04D12068F1
:10510000016821F040010160A06AB0F5005F09D19B
:105110002068016821F4005101602068016841F4B1
:1051200000510160012084F85100002084F85000F3
:105130000320BDE8F8830025401E009020688168A8
:1051400038EA010004D000214945BDD10020F0E734
:105150000121F9E7940000200178407841EA00201D
:105160007047000010B5502080F31188BFF34F8FB7
:10517000BFF36F8F04F0C8FB18B104494FF08050A3
:105180000860002080F3118810BD000004ED00E0ED
:1051900030B593B030216846FBF770FA14210CA8A3
:1051A000FBF76CFA1D480025016841F08051016051
:1051B000006800F0805011901948016841F4804166
:1051C00001600068022400F48040119001200090EA
:1051D000000401908001CDE9064006200890A82037
:1051E000CDE9090407200B906846FDF76DFD08B175
:1051F00072B6FEE70CA90F2081E831004FF4A050F1
:105200000F904FF48050109005210CA8FDF74AFC38
:10521000002801D072B6FEE713B030BD403802401E
:10522000007000400248016841F47001016070475D
:1052300088ED00E00148FEF742BA00005008002067
:10524000F0B50268254C264D264E274F274B4FF0D0
:10525000804CA04209D0604507D0A84205D0B0429A
:1052600003D0B84201D0984204D122F0700E4A68AF
:1052700042EA0E02A0421BD0604519D0A84217D0C6
:10528000B04215D0B84213D0984211D0184DA84260
:105290000ED0184DA8420BD0174DA84208D0174D7C
:1052A000A84205D0164DA84202D0164DA84203D1FF
:1052B00022F44075CA682A434D6922F080022A43CD
:1052C00002608A68C2620A688262A04201D0984283
:1052D00001D10969016301214161F0BD0000014074
:1052E0000004004000080040000C004000040140A1
:1052F00000400140004401400048014000180040C7
:10530000001C00400020004010B501F01F030121E7
:10531000046A99408C430462016A9A401143016215
:1053200010BD10B5846842EA032224F47F440A4386
:105330002243826010BD826822F070020A4342F06C
:105340000701816070470000F0B5026A22F0010297
:105350000262036A42688469124E24F073050C6885
:105360002C4323F002058B682B430D4DA84201D03E
:10537000B04205D123F00807CB683B4323F0040378
:10538000A84201D0B04205D14D6922F440721543C4
:105390008A692A4342608461496841630362F0BDBF
:1053A0000000014000040140F0B5026A22F0100242
:1053B0000262026A436884690D6824F4E64444EAA0
:1053C00005248D6822F0200242EA05120F4D104E8E
:1053D000A84201D0B04206D1CF6822F0800242EA52
:1053E000071222F04002A84201D0B04207D14D6915
:1053F00023F4406343EA85038D6943EA85034360F0
:105400008461496881630262F0BD000000000140D0
:1054100000040140F0B5026A22F480720262026A5E
:105420004368C46922F4007224F073050C68124EBC
:105430002C438D6842EA05220E4DA84201D0B042AD
:1054400006D1CF6822F4006242EA072222F4806289
:10545000A84201D0B04207D14D6923F4405343EA3A
:1054600005138D6943EA05134360C4614968C1634C
:105470000262F0BD000001400004014030B5026A44
:1054800022F480520262046A4268C3690D6823F400
:10549000E64343EA05238D6824F4005444EA0534C6
:1054A000084DA84202D0084DA84204D14D6922F40B
:1054B000804242EA85124260C36149680164046225
:1054C00030BD0000000001400004014010B5036A37
:1054D000046A24F001040462846924F0F00444EABC
:1054E000021423F00A020A438461026210BD10B55F
:1054F000036A23F0100303628369046A23F4704390
:1055000043EA023224F0A00343EA011182610162FE
:1055100010BD10B5806B0021C185C184FEF7B2FAC1
:1055200010BD01680C3151E8002F22F4907241E85F
:105530000023002BF5D10168143151E8002F22F02F
:10554000010241E80023002BF5D1016B012909D1AB
:1055500001680C3151E8002F22F0100241E80023CD
:10556000002BF5D1202180F83E1000210163704707
:1055700008B590F83E10222901D0022008BD8268AB
:105580004FF480539A4201D1016921B1816A9A4254
:105590001BD04AB10AE00268816A5268C2F308026D
:1055A0000A80816A891C08E0026972B10268526847
:1055B00002F07F020A70816A491C8162C18D491E16
:1055C0000904090CC18503D019E002685268F1E7AB
:1055D0000168CA6822F02002CA600168CA6822F421
:1055E0008072CA6001684A6922F001024A61202182
:1055F00080F83E10016B012903D0FEF79FFC0020CC
:1056000008BD0021016301680C3151E8002F22F030
:10561000100241E80023002BF5D101680A68D20688
:1056200002D50A6849680091818DFEF72AFAE6E7FB
:1056300070B5044600680169E26821F440511143E5
:1056400001612169A068E269084361691143084367
:105650002168CA6849F20C639A430243CA60206811
:105660004169A26921F440711143416131492068C7
:10567000884202D03049884202D1FDF7E3FA01E0C6
:10568000FDF7D0FAE2690023192164253226B2F52C
:10569000004F626828D0A0FB0101930F9200FAF737
:1056A000BDFE0146B0FBF5F06FF01802504301EB70
:1056B000800006EB0010B0FBF5F000F0F002B1FB4B
:1056C000F5F002EB0012B1FBF5F06FF01803584350
:1056D00001EB800006EB0010B0FBF5F000F00F00CE
:1056E00021681044886070BDA0FB010192185B41E5
:1056F000FAF794FE0146B0FBF5F00201B1FBF5F0BC
:105700006FF01803584301EB800006EBC000B0FBBC
:10571000F5F000F0F80002EB4002B1FBF5F0584361
:1057200001EB800006EBC000B0FBF5F000F00700D5
:10573000D6E7000000100140001401402DE9F041BF
:10574000984617460E460446069D27E0681C25D05D
:105750002DB1FCF79DFBA0EB0800A8421ED92068E4
:105760000C3050E8001F21F4D07140E80012002AEC
:10577000F5D12068143050E8001F21F0010140E805
:105780000012002AF5D1202084F83D0084F83E0064
:10579000002084F83C000320BDE8F0812068006808
:1057A00036EA000004D00020B842CFD00020F3E752
:1057B0000120F9E70148FEF767B900006406002000
:1057C00038B5294800680168890603D50168406832
:1057D000009038BD25490968C906FAD501684068B6
:1057E0000090234801680A684FF024031403214AFB
:1057F0000C6824F001040C6016D404686168C1F1DF
:10580000240189B2118063600268136843F40023A5
:1058100013600068026842F0010202601229D8D1C8
:10582000154901F1180017E001684C68C4F124041F
:10583000A4B214804B6011498A6A22F400228A6261
:105840000068016841F001010160122CC1D10A48D1
:10585000818AC18201463C3003F08AFBBDE83840B2
:10586000002002F0E9B90000A8060020004800402E
:1058700030070020E4010020C46A002000600240DC
:1058800038B51F480068C00638D51E4801680A6848
:1058900049680091816B09680A684FF4007314032A
:1058A000194A0C6824F001040C60816B0C68646870
:1058B000C4F50074A2F8804409684B60816B0968E4
:1058C0000A680AD442F400220A60806B006801680A
:1058D00041F0010101600C4809E022F400220A6055
:1058E000806B0068016841F0010101600748FFF723
:1058F00065FBBDE83840052002F09EB938BD0000C8
:1059000000140140EC0600204C6B00204C6D002080
:105910002DE9F0410C46D0F8D412D0F8C82200EBA3
:105920008101D1F8C01229B304F00F0606EB8603FB
:1059300000EB83050027AB694BB106EBC60602EB13
:105940008602926CB3FBF2F602FB1632A2B1C1F8EA
:105950001472D0F8D42200EB8200D0F8C40203699C
:105960002BB1D1F80802224601F5047198470020B6
:10597000BDE8F0810320FBE700231A462146AF6112
:1059800000F0D5FDF3E770B50546D0F8D40205EB7D
:105990008000D0F8C04294B1284600F0AAFCC4F8B8
:1059A0000C02D5F8D412D4F8040205EB8101D1F829
:1059B000C412CA6804F503719047002070BD03202B
:1059C00070BD000070B5224D0446297800F0D5FB6B
:1059D0002878002600F00F0000EB800004EB800028
:1059E00086846978204600F0C8FB687800F00F00D4
:1059F00000EB800004EB8000A0F86461A9782046E9
:105A000000F0BBFBA87800F00F0000EB800004EB77
:105A100080008684C684D4F8D40204EB8000D0F8D9
:105A2000C01299B1D0F8C40240688047D4F8D402BB
:105A300004EB8000D0F8C00200F09DFFD4F8D4023F
:105A400004EB8000C0F8C062C4F8BC62002070BDE6
:105A50000401002010B5D0F8D41200EB8100D0F87A
:105A6000C04284B1D0F8C41259B194F80002FF28A2
:105A700007D08B6894F8012221469847FF2084F8CC
:105A80000002002010BD032010BD00000A2101808B
:105A9000004870470801002070B5064682210C4876
:105AA00000F0FBFA05460121094800F0F6FA044629
:105AB0008121074800F0F1FA0DB11021A9714021B0
:105AC00004B1A18000B1818043203080004870BDC6
:105AD0001401002070B5064682210D4800F0DDFA61
